:100000000C94F4000C9411010C9411010C94110146
:100010000C94A5040C94F8040C9411010C94110197
:100020000C9411010C9411010C9411010C94110108
:100030000C9411010C9411010C9411010C941101F8
:100040000C9411010C9411010C9440040C941101B6
:100050000C9411010C9411010C9411010C941101D8
:100060000C9411010C941101084AD73B3BCE016E50
:1000700084BCBFFDC12F3D6C74319ABD56833DDAFF
:100080003D00C77F11BED9E4BB4C3E916BAAAABE0E
:10009000000000803F05A84CCDB2D44EB93836A937
:1000A000020C50B9918688083CA6AAAA2ABE000074
:1000B00000803F494E46494E4954594E414ECDCCA1
:1000C000CC3D0AD7233C17B7D13877CC2B32959546
:1000D000E6241FB14F0A000020410000C842004042
:1000E0001C4620BCBE4CCA1B0E5AAEC59D740040B7
:1000F0007A10F35A00A0724E18090010A5D4E80037
:1001000000E87648170000E40B54020000CA9A3B4E
:10011000000000E1F50500008096980000004042D4
:100120000F000000A0860100000010270000000062
:10013000E803000000006400000000000A00000066
:1001400000000100000000002C76D888DC674F0812
:1001500023DFC1DFAE59E1B1B796E5E3E453C63A18
:10016000E651997696E8E6C28426EB898C9B62ED8F
:10017000407C6FFCEFBC9C9F40F2BAA56FA5F49049
:10018000055A2AF75C936B6CF9676DC11BFCE0E4C0
:100190000D47FEF520E6B500D0ED902E0300943516
:1001A00077050080841E080000204E0A000000C869
:1001B0000C333333330F986E12831141EF8D2114BA
:1001C000893BE65516CFFEE6DB18D1844B381BF78A
:1001D0007C1D901DA4BBE424203284725E22810029
:1001E000C9F124ECA1E53D2711241FBECFEFD8E0D3
:1001F000DEBFCDBF13E0A0E0B1E0E8E6F1E302C06E
:1002000005900D92A430B107D9F713E0A4E0B3E054
:1002100001C01D92AE3CB107E1F70E9495050C9418
:10022000B2180C9400006F927F928F929F92AF92BF
:10023000BF92CF92DF92EF92FF920F931F93DF93C3
:10024000CF93CDB7DEB72A970FB6F894DEBF0FBEB7
:10025000CDBF3B016CE270E00E94E6116C01089496
:10026000C11CD11CC6010E949D114B015C010E9462
:10027000B20D7B018C01C80120E137E240E050E083
:100280000E943A10F3012083B701C80120E137E250
:1002900040E050E00E943A1024E630E040E050E0B8
:1002A0000E943A10F3012183B701C80124E630E02F
:1002B00040E050E00E943A10F3016283C501B401AE
:1002C00020E030E040E85FE30E94220E9B01AC0199
:1002D000CA01B90120E030E04AE754E40E94550F1A
:1002E0000E94B20DF30174836383C6016CE270E077
:1002F0000E94E6117C014C010894811C911CFC01B8
:1003000081818C3209F4B3C08E010F5F1F4FC80189
:10031000B40142E050E00E94F11143E050E0E40EED
:10032000F51E1B82C8010E94BF1120E836E948E98A
:1003300050E00E941B105B016C01C801B70142E054
:1003400050E00E94F11193E0892E912C8E0C9F1C9D
:10035000CE010396B40144E050E00E94F1111F82E7
:10036000C8010E94BF1122E330E040E050E00E944B
:100370001B1023E030E040E050E00E945C10790167
:100380008A01D801C7018A0D9B1DAC1DBD1DF3015B
:10039000808B918BA28BB38BC601B50120EA36E826
:1003A00041E050E00E945C10CA01B9010E94E00DDA
:1003B0005B016C01C801B7010E94E00D2CE933E537
:1003C00049EC56E30E94550F9B01AC01C601B501F3
:1003D0000E94780C7B018C01F30160877187828712
:1003E000938720E030E048EC52E40E94450D0E94E3
:1003F000AD0D24E630E0AB01249FB001259F700DC8
:10040000349F700D1124882777FD8095982F0E94C6
:10041000E00D9B01AC01C801B7010E94770C20E000
:1004200030E040E752E40E94450D5B016C01F301AE
:10043000608F718F828F938FC801B70120E030E009
:1004400048EC52E40E94450D0E94AD0D882777FDCF
:100450008095982F0E94E00D9B01AC01C601B5016B
:100460000E94780CF301608F718F828F938FC4018B
:100470006CE270E00E94E611FC019C012F5F3F4F8F
:1004800081818C32D1F0833551F4F301808D918DCF
:10049000A28DB38DB058808F918FA28FB38FF90149
:1004A00080818E3411F0833519F4F30180A705C0E3
:1004B0008C3209F01CC1F30110A6C9016CE270E096
:1004C0000E94E6117C014C010894811C911CFC01E6
:1004D00081818C3209F4B3C08E010F5F1F4FC801B8
:1004E000B40143E050E00E94F11144E050E0E40E1A
:1004F000F51E1C82C8010E94BF1120E836E948E9B8
:1005000050E00E941B105B016C01C801B70142E082
:1005100050E00E94F11183E0882E912C8E0C9F1CDC
:10052000CE010396B40144E050E00E94F1111F8215
:10053000C8010E94BF1122E330E040E050E00E9479
:100540001B1023E030E040E050E00E945C10790195
:100550008A01D801C7018A0D9B1DAC1DBD1DF30189
:10056000848B958BA68BB78BC601B50120EA36E844
:1005700041E050E00E945C10CA01B9010E94E00D08
:100580005B016C01C801B7010E94E00D2CE933E565
:1005900049EC56E30E94550F9B01AC01C601B50121
:1005A0000E94780C7B018C01F30164877587868734
:1005B000978720E030E048EC52E40E94450D0E940D
:1005C000AD0D24E630E0AB01249FB001259F700DF6
:1005D000349F700D1124882777FD8095982F0E94F5
:1005E000E00D9B01AC01C801B7010E94770C20E02F
:1005F00030E040E752E40E94450D5B016C01F301DD
:10060000648F758F868F978FC801B70120E030E027
:1006100048EC52E40E94450D0E94AD0D882777FDFD
:100620008095982F0E94E00D9B01AC01C601B50199
:100630000E94780CF301648F758F868F978FC401A9
:100640006CE270E00E94E611FC019C012F5F3F4FBD
:1006500081818C32C9F0873551F4F301848D958DF9
:10066000A68DB78DB058848F958FA68FB78FF9015F
:100670008081873511F0853419F4F30181A704C016
:100680008C32A9F5F30111A6C9016CE270E00E9459
:10069000E61101966CE270E00E94E611FC017C011B
:1006A0000894E11CF11C81818C3229F0C7010E9461
:1006B000A111F30186A7C7016CE270E00E94E61168
:1006C00001966CE270E00E94E611FC019C012F5F34
:1006D0003F4F81818C3241F0C9010E949D11F3018D
:1006E00060A371A382A393A321E030E002C020E0C5
:1006F00030E0C9012A960FB6F894DEBF0FBECDBF19
:10070000CF91DF911F910F91FF90EF90DF90CF90ED
:10071000BF90AF909F908F907F906F9008959BB106
:100720009F709BB99BB1807F892B8BB985B1897FE5
:1007300085B92A9A2A9A2A9808951F93182F0E94F9
:100740008F03812F8295807F0E948F031F910895D0
:10075000289A0E949D0386E69EE00197F1F708958E
:10076000CF93DF93EC0102C00E94A80389918823F4
:10077000D9F7DF91CF910895CF93DF93EC0102C0B9
:100780000E94A803FE01219684918823C9F7DF9176
:10079000CF91089528980E949D0386E69EE00197D8
:1007A000F1F70895DF93CF93CDB7DEB728970FB653
:1007B000F894DEBF0FBECDBFFE013196A0E0B1E0E0
:1007C00098E00D9001929150E1F7853008F083E0B8
:1007D000E82FF0E0EE0FFF1FEC0FFD1F8181860F69
:1007E00080680E94CA0328960FB6F894DEBF0FBE39
:1007F000CDBFCF91DF9108950F931F933A9A8AB19D
:10080000806F8AB984B1876084B9289880E09CE6BB
:100810000197F1F780E30E948F0380E094E2019753
:10082000F1F780E30E948F038DED90E00197F1F7DF
:1008300080E30E948F0306E61EE0C8010197F1F7EE
:1008400080E20E948F03C8010197F1F788E20E94BD
:10085000CA038FE00E94CA031F910F91089586E694
:100860009EE00197F1F7089581E00E94CA03089580
:1008700042980895429A089543980895439A089596
:100880001F920F920FB60F9211242F933F938F93C5
:100890009F93EF93FF933FB7F8942091C600809108
:1008A00004032432B1F41092C4031092C3031092D3
:1008B0000503882319F081E0809305031092040357
:1008C0008091C3039091C403FC01E75EFC4F24E2D6
:1008D00009C0882371F08091C3039091C403FC0187
:1008E000E75EFC4F208301969093C4038093C3037B
:1008F00020C08091C503873491F48091C60387346A
:1009000071F48091C703813451F481E08093040332
:100910001092C5031092C6031092C703DCCF8091DA
:10092000C6038093C5038091C7038093C6032093B9
:10093000C7033FBFFF91EF919F918F913F912F91FF
:100940000F900FBE0F901F9018951F920F920FB629
:100950000F9211242F933F938F939F93EF93FF93C5
:1009600031990CC01092070380E197E228EB30E048
:10097000F9013197F1F70197D9F77894FF91EF9149
:100980009F918F913F912F910F900FBE0F901F90CD
:1009900018952FB7F8948FE290E09093C50080935C
:1009A000C400E1ECF0E08081806180838081806818
:1009B0008083E2ECF0E08081846080832FBF089523
:1009C0008AB1817F8AB98BB18E608BB9E8E6F0E09D
:1009D000808186608083EDE6F0E080818E60808398
:1009E0003998419AECE6F0E0808182608083089536
:1009F0001F920F920FB60F9211242F933F934F9394
:100A00005F936F937F938F939F93AF93BF93EF9376
:100A1000FF9349992BC080910703882369F481E0F3
:100A20008093070380E197E228EB30E0F9013197EA
:100A3000F1F70197D9F768C080910703813009F079
:100A400063C089E093E066E372E047E050E00E9413
:100A5000890983E08093070380E197E228EB30E087
:100A6000F9013197F1F70197D9F74EC04A992AC099
:100A700080910703882369F482E08093070380E173
:100A800097E228EB30E0F9013197F1F70197D9F7B8
:100A90003BC0809107038130B9F589E093E06EE6B1
:100AA00072E049E050E00E94890983E080930703E7
:100AB00080E197E228EB30E0F9013197F1F70197F7
:100AC000D9F722C04B9920C080910703882321F4D5
:100AD00084E08093070318C0809107038130A1F45C
:100AE00089E093E066EB72E048E050E00E948909FB
:100AF00083E08093070380E197E228EB30E0F9017F
:100B00003197F1F70197D9F7FF91EF91BF91AF912D
:100B10009F918F917F916F915F914F913F912F9115
:100B20000F900FBE0F901F9018952F923F924F92EB
:100B30005F926F927F928F929F92AF92BF92CF926D
:100B4000DF92EF92FF920F931F93DF93CF93CDB776
:100B5000DEB7EF970FB6F894DEBF0FBECDBF109291
:100B6000C4031092C30386E9E9E1F3E0DF011D92BB
:100B70008A95E9F785E0E5ECF3E0DF011D928A95BF
:100B8000E9F70E94FC0380E060E00E94D2030E942B
:100B9000C9040E94E00478940E94340480E067E075
:100BA0000E94D20388E091E00E94B00381E069E0F6
:100BB0000E94D20380E191E00E94B00382E063E0F2
:100BC0000E94D20383E191E00E94B00380E395E7A5
:100BD00028EB30E0F9013197F1F70197D9F70E943E
:100BE00034041FAE40E1A42EB12CAC0EBD1E6E012C
:100BF0000894C11CD11C35EC632E31E0732E2FEA12
:100C0000222E23E0322E96E0892E912C8C0E9D1EF2
:100C10008AEF482E81E0582E80910703882329F51A
:100C20009091080380913502981729F40E943404AA
:100C30001092080303C09F5F9093080380E060E078
:100C40000E94D20381E291E00E94B00381E060E063
:100C50000E94D2038DE291E00E94B00382E060E046
:100C60000E94D20380E491E070C28091070381303A
:100C700069F59091080380913502981729F40E9434
:100C800034041092080303C09F5F9093080380E030
:100C900060E00E94D20383E591E00E94B00381E00E
:100CA00060E00E94D20382E691E00E94B00382E0FD
:100CB00060E00E94D20386E791E00E94B00383E0E7
:100CC00060E00E94D20387E891E03FC28091070371
:100CD000823029F59091080380913502981729F404
:100CE0000E9434041092080303C09F5F909308038E
:100CF00080E062E00E94D2038FE891E00E94B0039E
:100D000081E061E00E94D20380EA91E00E94B0039A
:100D100083E067E00E94D20382EB91E016C28091EB
:100D20000703833009F043C1909108038091350295
:100D3000981729F40E9434041092080303C09F5F9F
:100D400090930803BFADBB2309F014C1E0900D03DD
:100D5000F0900E0389E193E0B5010E94130180E059
:100D600060E00E94D20389EB91E00E94B00313E09F
:100D7000F601812F11928A95E9F700D000D000D0BA
:100D8000EDB7FEB73196ADB7BEB71296DC92CE92F4
:100D900011977382628280910F0390911003958363
:100DA00084830E941D12EDB7FEB736960FB6F894F5
:100DB000FEBF0FBEEDBFC6010E94B00388EC91E0FC
:100DC0000E94B003D6011D921A95E9F700D000D019
:100DD00000D0EDB7FEB73196ADB7BEB71296DC9234
:100DE000CE921197738262828091090390910A03D7
:100DF000958384830E941D12EDB7FEB736960FB619
:100E0000F894FEBF0FBEEDBFC6010E94B00381E0A3
:100E100060E00E94D2038DEC91E00E94B00384E177
:100E2000D1011D928A95E9F7C501B7010E94E50A33
:100E300046E022E00FEA13E00E947710C8010E940A
:100E4000B003C501B7010E946E0C8C0184ED91E0E6
:100E50000E94B003C8010E94B003C50169E073E0BD
:100E60000E94440A20910F033091100380910903DE
:100E700090910A032817390711F4B1E0BFAFD701E9
:100E80001496ED91FC91159760817181C5010E94C6
:100E9000B60820E030E048E452E40E943E0D87FFAF
:100EA00044C182E060E00E94D2038EEE91E00E9495
:100EB000B0031AE0F401812F11928A95E9F7ADB7DA
:100EC000BEB718970FB6F894BEBF0FBEADBFEDB753
:100ED000FEB7319612969C928E921197538242825F
:100EE0008091150390911603A0911703B0911803F8
:100EF00084839583A683B7830E941D12EDB7FEB746
:100F000038960FB6F894FEBF0FBEEDBF83E060E0E9
:100F10000E94D2038DEF91E00E94B003D4011D9294
:100F20001A95E9F7EDB7FEB738970FB6F894FEBFFC
:100F30000FBEEDBF3196ADB7BEB712969C928E92A2
:100F40001197538242828091110390911203A091D4
:100F50001303B091140384839583A683B7830E94FF
:100F60001D12EDB7FEB738960FB6F894FEBF0FBE50
:100F7000EDBF52CE9091080380913502981729F465
:100F80000E9434041092080303C09F5F90930803EB
:100F900081E065E00E94D2038AE092E00E94B00303
:100FA00082E061E00E94D20383E192E0CEC08091B2
:100FB0000703843009F030CE80910F039091100325
:100FC0000197A9F49091080380913502981729F4AC
:100FD0000E9434041092080303C09F5F909308039B
:100FE00081E060E00E94D20384E292E0AEC0E09033
:100FF0000D03F0900E0389E193E0B5010E94130107
:1010000080E060E00E94D20389EB91E00E94B0038F
:1010100013E0D601E12F1D92EA95E9F700D000D048
:1010200000D0EDB7FEB73196ADB7BEB71296DC92E1
:10103000CE9211977382628280910F039091100378
:10104000958384830E941D12EDB7FEB736960FB6C6
:10105000F894FEBF0FBEEDBFC6010E94B00388EC3E
:1010600091E00E94B003D6011D921A95E9F700D0D5
:1010700000D000D0EDB7FEB73196ADB7BEB712962F
:10108000DC92CE92119773826282809109039091D3
:101090000A03958384830E941D12EDB7FEB736962E
:1010A0000FB6F894FEBF0FBEEDBFC6010E94B0039D
:1010B00081E060E00E94D2038DEC91E00E94B003D9
:1010C00084E1D1011D928A95E9F7C501B7010E941B
:1010D000DC0A46E022E00FEA13E00E947710C80124
:1010E0000E94B003C501B7010E94650C8C0184ED1C
:1010F00091E00E94B003C8010E94B003C50169E0FD
:1011000073E00E94960AD7011496ED91FC91159711
:1011100060817181C5010E94B60820E030E048E49A
:1011200052E40E943E0D87FD77CD0E94380482E094
:1011300065E00E94D20386ED91E00E94B00383E057
:1011400062E00E94D2038EED91E00E94B00364CD74
:101150002FED3EE245E652E40E94550F089526E346
:101160003AEF4EE85CE30E94550F08952F923F92AC
:101170004F925F926F927F928F929F92AF92BF92A7
:10118000CF92DF92EF92FF920F931F93DF93CF9353
:10119000CDB7DEB728970FB6F894DEBF0FBECDBF30
:1011A0009E838D8378876F83FB01E08CF18C028DA9
:1011B000138DFC01A08CB18CC28CD38CC801B701FB
:1011C000A60195010E94770C26E33AEF4EE85CE316
:1011D0000E94550F20E030E040E05FE30E94550F91
:1011E0000E94B80F3B014C01C801B70126E33AEF5A
:1011F0004EE85CE30E94550F0E94420D69837A839A
:101200008B839C83C601B50126E33AEF4EE85CE38D
:101210000E94550F0E94420D1B012C01EF81F885A1
:10122000648D758D868D978DED81FE81248D358D34
:10123000468D578D0E94770C26E33AEF4EE85CE32B
:101240000E94550F20E030E040E05FE30E94550F20
:101250000E94B80F7B018C01C401B301A40193016A
:101260000E94550F5B016C0169817A818B819C81A1
:10127000A20191010E94550FA80197010E94550FEC
:10128000A80197010E94550F9B01AC01C601B50151
:101290000E94780C7B018C010E94C20F5B016C01E3
:1012A00060E070E080E89FE3A80197010E94770C5E
:1012B0000E94C20F9B01AC01C601B5010E94EB0C5C
:1012C0009B01AC010E94780C20E038E147EC55E42A
:1012D0000E94550F20E030E04AE754E40E94550F89
:1012E00028960FB6F894DEBF0FBECDBFCF91DF9129
:1012F0001F910F91FF90EF90DF90CF90BF90AF9034
:101300009F908F907F906F905F904F903F902F9025
:1013100008954F925F926F927F928F929F92AF92B9
:10132000BF92CF92DF92EF92FF920F931F93CF93D2
:10133000DF93EC017B012A015983488381E090E02F
:101340009F838E831B821A821D821C8286E090E01E
:101350000E9498108C018FE290E00E949810FC018E
:10136000D7012D913D914D915C911397208F318F35
:10137000428F538F14962D913D914D915C9117970B
:10138000248F358F468F578FD80111969C938E935B
:1013900013961C921E92129715961C921E921497E9
:1013A0001B830A831D830C834701580181E0682E4B
:1013B000712C0F2EF0E0CF2EF0E0DF2EF0E0EF2EBC
:1013C000F0E0FF2EF02D3FC086E090E00E949810E4
:1013D0008C018FE290E00E949810FC01D4012D91C5
:1013E0003D914D915C911397208F318F428F538F98
:1013F00014962D913D914D915C911797248F358FC7
:10140000468F578FD80111969C938E931396BC925A
:10141000AE92129715961C921E921497D5018D913B
:101420009C91BF010E94B6089B01AC01C701B601A7
:101430000E94780C6B017C01F501158304830894EC
:10144000611C711C580188E090E0880E991E64149C
:1014500075040CF4B9CFC886D986EA86FB86CC869B
:10146000DD86EE86FF86DF91CF911F910F91FF9071
:10147000EF90DF90CF90BF90AF909F908F907F9034
:101480006F905F904F900895EF92FF920F931F938C
:10149000CF93DF93EB01EC81FD810480F581E02D9A
:1014A000309719F40E943C043AC0608171810E9417
:1014B000B60820E030E040E751E40E943E0D88236A
:1014C00054F5EC84FD840E851F85AC81BD81129698
:1014D000ED91FC911397608171818D919C910E9497
:1014E000B6089B01AC01C801B7010E94770C6C875C
:1014F0007D878E879F878E819F8101969F838E83B4
:10150000EC81FD81848195819D838C830E943C04C4
:101510000E94380404C00E943A040E943E04DF91F5
:10152000CF911F910F91FF90EF900895EF92FF924E
:101530000F931F93CF93DF939C01EB01EC81FD810F
:1015400082819381892BE9F00480F581E02D60810F
:101550007181C9010E94B6087B018C0120E030E056
:1015600040E751E40E943E0D882374F48E819F81F0
:1015700001979F838E83EC81FD81828193819D837E
:101580008C830E943C0411C0C801B70120E030E008
:1015900048E452E40E943E0D87FD03C00E943804D7
:1015A00004C00E943A040E943E04DF91CF911F9133
:1015B0000F91FF90EF900895FB010280F381E02DE1
:1015C000608171810E94B6080895FB010480F58155
:1015D000E02D608171810E94B60808952F923F929C
:1015E0004F925F926F927F928F929F92AF92BF9233
:1015F000CF92DF92EF92FF920F931F93FB01E08C4B
:10160000F18C028D138DFC01208C318C428C538C1B
:10161000C801B701A20191010E94770C26E33AEFBD
:101620004EE85CE30E94550F20E030E040E05FE3CD
:101630000E94550F0E94B80F5B016C01C801B701F1
:1016400026E33AEF4EE85CE30E94550F0E94420DFC
:101650003B014C01C201B10126E33AEF4EE85CE3E5
:101660000E94550F0E94420D7B018C01C601B501FD
:10167000A60195010E94550F5B016C01C401B301E5
:10168000A80197010E94550F20E030E040E050E0B3
:101690000E94550F20E030E040E050E00E94550FDE
:1016A0009B01AC01C601B5010E94780C7B018C0145
:1016B0000E94C20F5B016C0160E070E080E89FE374
:1016C000A80197010E94770C0E94C20F9B01AC01F8
:1016D000C601B5010E94EB0C9B01AC010E94780C85
:1016E00020E038E147EC55E40E94550F20E030E05F
:1016F0004AE754E40E94550F1F910F91FF90EF901D
:10170000DF90CF90BF90AF909F908F907F906F9021
:101710005F904F903F902F9008956F927F928F929D
:101720009F92AF92BF92CF92DF92EF92FF920F9370
:101730001F937C018B01FB01608D718D828D938DD8
:1017400026E33AEF4EE85CE30E94550F0E94420DFB
:101750003B014C01F701608D718D828D938D26E3E5
:101760003AEF4EE85CE30E94550F0E94420D5B0188
:101770006C01F801648D758D868D978DF701248D30
:10178000358D468D578D0E94770C26E33AEF4EE853
:101790005CE30E94550F20E030E040E05FE30E94F0
:1017A000550F0E94B80F7B018C01C401B301A60143
:1017B00095010E94550FA80197010E94550FA8019D
:1017C00097010E94550F20E030E040E050E00E9479
:1017D000780C7B018C010E94C20F5B016C0160E000
:1017E00070E080E89FE3A80197010E94770C0E94B7
:1017F000C20F9B01AC01C601B5010E94EB0C9B011D
:10180000AC010E94780C20E038E147EC55E40E94DE
:10181000550F20E030E04AE754E40E94550F1F9135
:101820000F91FF90EF90DF90CF90BF90AF909F907F
:101830008F907F906F900895CF92DF92EF92FF92FA
:101840000F931F93CF93DF936C01EB010E948D0BDD
:101850007B018C01C601BE010E94EE0A9B01AC0116
:10186000C801B7010E944A0F18169CF46C857D854B
:101870008E859F85F60124853585468557850E948E
:101880004A0F18161CF026EF32E015C028EF32E0A0
:1018900012C0688579858A859B85F601208531850A
:1018A000428553850E944A0F18161CF02AEF32E039
:1018B00002C02CEF32E0C901DF91CF911F910F914F
:1018C000FF90EF90DF90CF900895FB010280F381AD
:1018D000E02D608171810E941C0C0895FB01048041
:1018E000F581E02D608171810E941C0C0895505893
:1018F000BB27AA270ED083C24CD230F051D220F0A1
:1019000031F49F3F11F41EF41CC20EF4E095E7FB86
:1019100004C2E92F96D280F3BA17620773078407CF
:10192000950718F071F49EF5AEC20EF4E0950B2EFB
:10193000BA2FA02D0B01B90190010C01CA01A00121
:101940001124FF27591B99F0593F50F4503E68F17C
:101950001A16F040A22F232F342F4427585FF3CFBD
:10196000469537952795A795F0405395C9F77EF48E
:101970001F16BA0B620B730B840BBAF09150A1F0D7
:10198000FF0FBB1F661F771F881FC2F70EC0BA0F5D
:10199000621F731F841F48F4879577956795B795E5
:1019A000F7959E3F08F0B3CF9395880F08F09927DD
:1019B000EE0F979587950895ECD158F080E891E067
:1019C00009F49EEFEDD128F040E851E059F45EEFC4
:1019D00009C0B7C158C2E92FE07833D268F3092EA5
:1019E000052AC1F3261737074807590738F00E2E86
:1019F00007F8E02569F0E025E0640AC0EF6307F826
:101A0000009407FADB01B9019D01DC01CA01AD01B7
:101A1000EF934AD0F4D10AD05F91552331F02BEDEA
:101A20003FE049E450FD49EC63CF0895DF93DD27A3
:101A3000B92FBF7740E85FE31616170648075B0724
:101A400010F4D92F2BD29F938F937F936F93D8D27B
:101A5000E8E6F0E079D1D3D12F913F914F915F919A
:101A600030D2DD2349F09058A2EA2AED3FE049EC5C
:101A70005FE3D0785D274DDFDF91C1C12AD108F443
:101A800081E0089595D1E395CBC10CD0B8C188D140
:101A900040F07FD130F021F45F3F19F03EC1511189
:101AA000F3C14FC1CED198F39923C9F35523B1F3B4
:101AB000951B550BBB27AA2762177307840738F0BD
:101AC0009F5F5F4F220F331F441FAA1FA9F333D01C
:101AD0000E2E3AF0E0E830D091505040E695001CD0
:101AE000CAF729D0FE2F27D0660F771F881FBB1F8C
:101AF000261737074807AB07B0E809F0BB0B802D66
:101B0000BF01FF2793585F4F2AF09E3F510568F0B1
:101B100004C1BAC15F3FECF3983EDCF3869577953C
:101B20006795B795F7959F5FC9F7880F911D9695B3
:101B3000879597F90895E1E0660F771F881FBB1F0F
:101B4000621773078407BA0720F0621B730B840BBC
:101B5000BA0BEE1F88F7E095089504D06894B11190
:101B600093C1089576D188F09F5790F0B92F9927A7
:101B7000B751A0F0D1F0660F771F881F991F1AF098
:101B8000BA95C9F712C0B13081F07DD1B1E00895A6
:101B90007AC1672F782F8827B85F39F0B93FCCF327
:101BA000869577956795B395D9F73EF4909580958E
:101BB000709561957F4F8F4F9F4F0895E89409C0AE
:101BC00097FB3EF490958095709561957F4F8F4F70
:101BD0009F4F9923A9F0F92F96E9BB279395F69586
:101BE000879577956795B795F111F8CFFAF4BB0F04
:101BF00011F460FF1BC06F5F7F4F8F4F9F4F16C068
:101C0000882311F096E911C0772321F09EE8872FF1
:101C1000762F05C0662371F096E8862F70E060E0AD
:101C20002AF09A95660F771F881FDAF7880F969526
:101C3000879597F90895ADD018F011F0B1D038F428
:101C400080C022C1E92FFDD0B0F35523C9F3E7FBD3
:101C50006217730784079507A8F199F3E92FFF2707
:101C600088232AF03197660F771F881FDAF7952FA0
:101C70005527442332F091505040220F331F441F08
:101C8000D2F7BB27E91BF50B621B730B840BB10961
:101C9000C1F222F4620F731F841FB11D31972AF025
:101CA000660F771F881FBB1FEFCF915050405AF02F
:101CB00041F0882332F0660F771F881F9150504003
:101CC000C1F7939530C08695779567959F5FD9F753
:101CD000F8CF990F0008550FAA0BE0E8FEEF161693
:101CE0001706E807F907C0F012161306E407F50710
:101CF00098F0621B730B840B950B39F40A2661F084
:101D0000232B242B252B21F408950A2609F4A14026
:101D1000A6958FEF811D811D089597F99F6780E833
:101D200070E060E008959F3F31F0915020F4879576
:101D300077956795B795880F911D9695879597F933
:101D400008959FEF80EC0895DF93CF931F930F9337
:101D5000FF92EF92DF927B018C01689405C0DA2E2E
:101D6000EF01AFD0FE01E894A59125913591459101
:101D70005591AEF3EF01CDDDFE019701A801DA9494
:101D800079F7DF90EF90FF900F911F91CF91DF9146
:101D9000089500240A9416161706180609060895D1
:101DA00000240A9412161306140605060895C9CFD6
:101DB00050D0E8F3E894E0E0BB279F57F0F02AED1D
:101DC0003FE049EC06C0EE0FBB0F661F771F881F70
:101DD00028F0B23A62077307840728F0B25A620B00
:101DE000730B840BE3959A9572F7803830F49A95CB
:101DF000BB0F661F771F881FD2F7904896CF092E1A
:101E00000394000C11F4882352F0BB0F40F4BF2B55
:101E100011F460FF04C06F5F7F4F8F4F9F4F089595
:101E2000EF93E0FF06C0A2EA2AED3FE049EC5FEB4A
:101E300070DDE5DF0F90039401FC9058E5E9F0E0D8
:101E4000E9C057FD9058440F551F59F05F3F71F09E
:101E50004795880F97FB991F61F09F3F79F0879511
:101E60000895121613061406551FF2CF4695F1DF9A
:101E700008C0161617061806991FF1CF869571052A
:101E8000610508940895E894BB2766277727CB015E
:101E900097F908951EDF08F48FEF08959B01AC01B8
:101EA00060E070E080E89FE3F0CD0BD0A8CF71DF59
:101EB00028F076DF18F0952309F02FCF42CF1124B8
:101EC000E3CFBFDFA0F3959FD1F3950F50E0551FEF
:101ED000629FF001729FBB27F00DB11D639FAA277F
:101EE000F00DB11DAA1F649F6627B00DA11D661FCE
:101EF000829F2227B00DA11D621F739FB00DA11DEF
:101F0000621F839FA00D611D221F749F3327A00DA8
:101F1000611D231F849F600D211D822F762F6A2F44
:101F200011249F5750408AF0E1F088234AF0EE0FC9
:101F3000FF1FBB1F661F771F881F91505040A9F7D6
:101F40009E3F510570F0E9CE9FCF5F3FECF3983E86
:101F5000DCF3869577956795B795F795E7959F5F3D
:101F6000C1F7FE2B880F911D9695879597F90895D7
:101F70009F931EDF0F9007FCEE5F52CF11F40EF41B
:101F8000E0CED1CE66DFD0F39923D9F3CEF39F57BD
:101F9000550B87FF38D00024A0E640EA9001805816
:101FA0005695979528F4805C660F771F881F20F060
:101FB00026173707480730F4621B730B840B202960
:101FC00031294A2BA69517940794202531254A27B5
:101FD00058F7660F771F881F20F026173707480726
:101FE00030F4620B730B840B200D311D411DA09545
:101FF00081F7B901842F9158880F96958795089598
:102000009B01AC0152CF91505040660F771F881F43
:10201000D2F708959F938F937F936F93FF93EF93DE
:102020009B01AC0142DFEF91FF918EDE2F913F913A
:102030004F915F913ACF629FD001739FF001829FD1
:10204000E00DF11D649FE00DF11D929FF00D839F47
:10205000F00D749FF00D659FF00D9927729FB00DE4
:10206000E11DF91F639FB00DE11DF91FBD01CF01F7
:1020700011240895A1E21A2EAA1BBB1BFD010DC05D
:10208000AA1FBB1FEE1FFF1FA217B307E407F50728
:1020900020F0A21BB30BE40BF50B661F771F881F04
:1020A000991F1A9469F760957095809590959B019A
:1020B000AC01BD01CF01089597FB092E05260ED076
:1020C00057FD04D0D7DF0AD0001C38F45095409556
:1020D000309521953F4F4F4F5F4F0895F6F79095FC
:1020E0008095709561957F4F8F4F9F4F0895EF9228
:1020F000FF920F931F93F22FF02E47FD02C0E4E0F2
:1021000001C0E4E1242F332727FD309537FF03C0BA
:10211000309521953F4F4F2D512F0F2FEE2E0E94BE
:102120001E148F2D912F1F910F91FF90EF90089506
:10213000CF93DF93BC018230910510F462E070E030
:10214000A091CA03B091CB03ED01E0E0F0E040E0E4
:1021500050E021C0888199818617970769F48A81A8
:102160009B81309719F09383828304C09093CB03B3
:102170008093CA03FE0134C06817790738F441150B
:10218000510519F08417950708F4AC01FE018A8106
:102190009B819C01E9012097E9F641155105A9F1C0
:1021A000CA01861B970B049708F4BA01E0E0F0E03F
:1021B0002AC08D919C91119784179507F9F46417A3
:1021C000750781F412968D919C911397309719F0B1
:1021D0009383828304C09093CB038093CA03FD0151
:1021E00032964FC0CA01861B970BFD01E80FF91FFD
:1021F0006193719302978D939C9343C0FD018281FB
:1022000093819C01D9011097A1F68091C803909108
:10221000C903892B41F480910003909101039093AD
:10222000C9038093C80340910203509103034115F1
:10223000510541F44DB75EB78091FE029091FF02C7
:10224000481B590B2091C8033091C9032417350747
:10225000B0F4CA01821B930B8617970780F0AB017D
:102260004E5F5F4F8417950750F0420F531F5093F6
:10227000C9034093C803F9016193719302C0E0E080
:10228000F0E0CF01DF91CF910895CF93DF930097D6
:1022900009F450C0EC0122971B821A82A091CA0354
:1022A000B091CB03109709F140E050E0AC17BD07A7
:1022B00008F1BB83AA83FE0121913191E20FF31F44
:1022C000AE17BF0779F48D919C911197280F391F94
:1022D0002E5F3F4F3983288312968D919C911397DF
:1022E0009B838A834115510571F4D093CB03C0932E
:1022F000CA0320C012968D919C911397AD0100974F
:1023000011F0DC01D3CFFA01D383C2832191319143
:10231000E20FF31FCE17DF0769F488819981280F38
:10232000391F2E5F3F4FFA01318320838A819B81C1
:1023300093838283DF91CF910895662777270C944A
:102340008015FC0188279927E89421912032E9F330
:10235000293010F02E30C8F32B3241F02D3239F4F1
:10236000689404C00E941512820F911D2191205380
:102370002A30C0F31EF4909581959F4F08951F93C6
:10238000FC0199278827BC01E89411911032E9F3E8
:10239000193010F01E30C8F31B3251F01D3249F4D1
:1023A000689406C00E940012610F711D811D911D6D
:1023B000119110531A30B0F33EF4909580957095BA
:1023C00061957F4F8F4F9F4F1F910895FC01819121
:1023D000861721F08823D9F7992708953197CF01DF
:1023E0000895FB01DC014150504048F001900D92EE
:1023F0000020C9F701C01D9241505040E0F70895F8
:10240000592F482F372F262F660F771F881F991FA8
:10241000660F771F881F991F620F731F841F951FF8
:10242000660F771F881F991F08957AE0979F902D58
:10243000879F802D910D11240895AEE0B0E0E3E276
:10244000F2E10C9489180D891E8986E08C831A8329
:1024500009838FEF9FE79E838D839E01275E3F4F09
:10246000CE0101966F89788DA9010E9441122F81BA
:102470003885020F131FF80110822E96E4E00C94A9
:10248000A518ABE0B0E0E7E4F2E10C947B183C0166
:102490002B015A01FC0117821682838181FD03C042
:1024A0006FEF7FEFC6C19AE0892E1E010894211CB0
:1024B000311CF3012381F20123FD859123FF8191DA
:1024C0002F01882309F4B2C1853239F423FD8591A7
:1024D00023FF81912F01853229F490E0B3010E94FE
:1024E000EE17E7CF982FFF24EE249924FFE1FF1584
:1024F000D0F09B3269F09C3228F4903259F093323C
:1025000091F40EC09D3249F0903369F441E024C04B
:1025100052E0F52A84E0F82A28C098E0F92A25C07C
:10252000E0E1FE2A22C0F7FC29C0892F80538A30BF
:1025300070F4F6FE05C0989C902C1124980E15C0DE
:10254000E89CE02C1124E80EF0E2FF2A0EC09E3237
:1025500029F4F6FC6BC140E4F42A07C09C3619F458
:1025600050E8F52A02C0983649F4F20123FD95910E
:1025700023FF91912F01992309F0B8CF892F85541A
:10258000833018F08052833038F444E050E0A40ED9
:10259000B51E5FE359830FC0933631F0933779F05E
:1025A000933509F056C020C0F5018081898342E04F
:1025B00050E0A40EB51E610101E010E012C0F5016B
:1025C000C080D180F6FC03C06FEF7FEF02C0692DA1
:1025D00070E042E050E0A40EB51EC6010E94E31771
:1025E0008C015FE7F52214C0F501C080D180F6FCB4
:1025F00003C06FEF7FEF02C0692D70E042E050E052
:10260000A40EB51EC6010E94D8178C0150E8F52A09
:10261000F3FE07C01AC080E290E0B3010E94EE17FB
:10262000EA948E2D90E008171907A8F30EC0F60162
:10263000F7FC8591F7FE81916F0190E0B3010E9454
:10264000EE17E110EA94015010400115110579F7D9
:10265000EAC0943611F0993669F5F7FE08C0F50125
:10266000208131814281538184E090E00AC0F501EC
:10267000808191819C01442737FD4095542F82E051
:1026800090E0A80EB91E9FE6F92257FF09C05095A9
:102690004095309521953F4F4F4F5F4FE0E8FE2A20
:1026A000CA01B901A1012AE030E00E941A18D82E0F
:1026B000D21840C0953729F41F2D1F7E2AE030E044
:1026C0001DC01F2D197F9F3661F0903720F498357B
:1026D00009F0ACC00FC0903739F0983709F0A6C0A8
:1026E00004C028E030E00AC0106114FD146020E14D
:1026F00030E004C014FD166020E132E017FF08C08E
:10270000F501608171818281938144E050E008C0CD
:10271000F50180819181BC0180E090E042E050E0D1
:10272000A40EB51EA1010E941A18D82ED2188FE748
:10273000F82EF122F6FE0BC05EEFF522D91438F424
:10274000F4FE07C0F2FC05C08FEEF82202C01D2D7A
:1027500001C0192DF4FE0DC0FE01ED0DF11D8081AB
:10276000803319F499EEF92208C01F5FF2FE05C00C
:1027700003C08F2D867809F01F5F0F2DF3FC14C066
:10278000F0FE0FC01E1510F09D2C0BC09D2C9E0C52
:10279000911A1E2D06C080E290E0B3010E94EE1750
:1027A0001F5F1E15C0F304C01E1510F4E11A01C00E
:1027B000EE2404FF0FC080E390E0B3010E94EE1707
:1027C00002FF1DC001FD03C088E790E00EC088E550
:1027D00090E00BC0802F867891F001FF02C08BE261
:1027E00001C080E2F7FC8DE290E0B3010E94EE1799
:1027F00006C080E390E0B3010E94EE179A94D914CA
:10280000C0F3DA94F101ED0DF11D808190E0B30188
:102810000E94EE17DD20A9F706C080E290E0B30128
:102820000E94EE17EA94EE20C1F743CEF3016681D1
:102830007781CB012B96E2E10C949718A9E0B0E0E8
:10284000E4E2F4E10C947F186A01122FA02EBE2C52
:102850002BE3201718F42CE3922E02C0902E9394B1
:10286000AE014F5F5F4F27E0092D0E94E016BC01CB
:102870008981E82EFF24C70189709070019711F4B7
:10288000ADE209C0B1FE02C0ABE205C0B0FC02C0BF
:10289000A0E001C0A0E2E3FE3BC0AA2311F423E0C4
:1028A00001C024E0211710F020E002C0121B212FEC
:1028B000EB2CB4FE02C0322F0AC0F601322F80E2A8
:1028C00002C0819331503323E1F7C20ED11CAA23F9
:1028D00019F0F601A1936F01F6013196E2FE05C0F1
:1028E0009EE4D6019C9381E404C09EE6D6019C93AD
:1028F00081E611968C9391833296DF01832F90E2CB
:1029000002C09D9381508823E1F7E30FF11D40C081
:10291000E2FE42C0AA2311F423E001C024E0211703
:1029200010F020E002C0121B212FEB2CB4FE02C0DD
:10293000922F0AC0F601922F80E202C0819391503B
:102940009923E1F7C20ED11CAA2319F0F601A19335
:102950006F01F6013196E2FE08C089E4D6018C933E
:102960008EE411968C9386E407C089E6D6018C9399
:102970008EE611968C9386E681833296DF01892F4D
:1029800020E202C02D9381508823E1F7E90FF11D69
:1029900010822EEF3FEFAFC0161617061CF041E075
:1029A00050E003C0AB014F5F5F4FAA2019F480E0F5
:1029B00090E003C08A2D90E0019620E030E0AA2349
:1029C00011F021E030E0240F351F280F391F812F2F
:1029D00090E02817390714F020E002C0121B212FC5
:1029E0004B2D50E0CA0180719070B4FC0DC0B3FC57
:1029F0000BC0F601322F40E202C041933150332325
:102A0000E1F7C20ED11C01C0322FAA2319F0F60142
:102A1000A1936F01892B11F0132F0AC0F601132F18
:102A200080E302C0819311501123E1F7C30ED11C42
:102A3000092D060FBA8090E1892E912C8E209F20BF
:102A4000E4FE04C0F1E3BF1609F40150101614F0BF
:102A500001E003C0093008F008E09B0177FF02C0E5
:102A600020E030E0CB010196821B930BFE013196F2
:102A7000E80FF91F8EE2F82E3B01601A71088A2DCB
:102A800090E044275527481B590B8FEF2F3F3807FD
:102A900019F4D601FD926D01621773072CF06216CE
:102AA000730614F4808101C080E3215030403196D8
:102AB0002417350724F0D6018D936D01E6CF261734
:102AC000370749F4B5E3BB1528F0BB1621F4811490
:102AD000910409F481E3F6018193D601812F90E2FC
:102AE00002C09C93815011968823D9F7E10FF11D04
:102AF000108220E030E0C9012996EEE00C949B188A
:102B0000A0E0B0E0E6E8F5E10C948118EC015B018F
:102B10006115710519F0FB0191838083F9908F2D68
:102B200090E00E94B817892BC9F7FDE2FF1621F447
:102B3000F990EE24E39405C02BE2F21609F4F99023
:102B4000EE248E0101501040C80163EB70E043E0B9
:102B500050E00E94C017892B01F58E010E5F1F4FB8
:102B6000C80166EB70E045E050E00E94C017892B79
:102B700019F48E01095F1F4FA114B10419F0F5017A
:102B800011830083E0FC04C070E090E080E814C092
:102B900070E090E080E86FEF08C1C8016BEB70E077
:102BA00043E050E00E94C017892B69F4A114B104DE
:102BB00029F470E090E080EC6FE7F7C02296F50111
:102BC000D183C083F6CF8824992440E050E060E0B0
:102BD00070E0EF2DE053EA30A0F5F2E0EF2A8E2D01
:102BE00090E09C0128703070E2FE06C0232B79F53E
:102BF0000894811C911C2BC0232B19F00894810888
:102C00009108DB01CA0112E0880F991FAA1FBB1FA0
:102C10001A95D1F7480F591F6A1F7B1F440F551F84
:102C2000661F771F4E0F511D611D711D483929E91F
:102C3000520729E9620729E1720748F084E0E82A8F
:102C400006C0EE3F31F4E3FC39C098E0E92AF99080
:102C5000C0CFE53311F0E53189F529912D3219F412
:102C6000E0E1EE2A05C02B3219F081E090E003C0CC
:102C7000299182E090E0E22FE053EA3018F0C81B7F
:102C8000D90B1CC020E030E0FCE020383F075CF4AA
:102C9000C901880F991F880F991F280F391F220F0C
:102CA000331F2E0F311DE991E053EA3068F3E4FE43
:102CB00003C0309521953F4F820E931ECE2CDD240C
:102CC000E1FE07C0A114B10421F02197F501D183E1
:102CD000C083CB01BA010E94DE0D7B018C01F3E0C1
:102CE000CF22DD2423E0C216D10421F417FB109576
:102CF00017F9109557016801C801B70120E030E0CD
:102D000040E050E00E943E0D882309F44AC097FE3F
:102D10000DC022EDE22E20E0F22E909481949108D5
:102D20009394C0E2D0E000E010E012C09AEEE92EE9
:102D300090E0F92EF6CFF701259135914591549108
:102D4000C601B5010E94550F5B016C018C1A9D0AEA
:102D50008C169D0684F7D595C7950F5F1F4F0630DB
:102D6000110529F08CEF9FEFE80EF91EF1CFC50198
:102D7000D6017C018D018C2D880F8D2D881F8F3FF2
:102D800051F0C601B50120E030E040E050E00E9483
:102D90003E0D882331F482E290E09093CD0380933E
:102DA000CC037E2D9F2D802F612F272F392F482F69
:102DB000562FB901CA01CDB7DEB7ECE00C949D18CF
:102DC000283008F027E03327DA01990F311D87FDFD
:102DD000916000966105710539F432602E5F3D9374
:102DE00030E32A95E1F708959F3F30F08038710570
:102DF000610509F03C5F3C5F3D93913008F08068CD
:102E0000911DDF93CF931F930F93FF92EF92192F92
:102E1000987F9695E92F96959695E90FFF27E85BA1
:102E2000FE4F99273327EE24FF24A701E7010590E1
:102E30000894079428F4360FE71EF81E491F511D09
:102E4000660F771F881F991F0694A1F705900794B6
:102E500028F4E70EF81E491F561FC11D770F881F63
:102E6000991F661F0694A1F70590079428F4F80EA1
:102E7000491F561FC71FD11D880F991F661F771F37
:102E80000694A1F70590079420F4490F561FC71F19
:102E9000D81F990F661F771F881F0694A9F7849182
:102EA0001095177041F0D695C79557954795F794AB
:102EB000E7941A95C1F7EEEEF0E06894159015913D
:102EC00035916591959105907FE27395E118F10A2E
:102ED000430B560BC90BD009C0F7E10CF11E431F81
:102EE000561FC91FD01D7EF4703311F48A95E6CFAA
:102EF000E894015030F0080F0AF40027021708F494
:102F0000202F2395022F7A3328F079E37D932A9599
:102F1000E9F710C07D932A9589F6069497956795F1
:102F2000379517951794E118F10A430B560BC90B07
:102F3000D00998F023957E9173957A3308F070E369
:102F40007C932013B8F77E9170617D9330F0839568
:102F500071E37D9370E32A95E1F71124EF90FF90E0
:102F60000F911F91CF91DF91992787FD909508953B
:102F70009111BEC0803219F089508550D0F7089564
:102F8000FB01DC014150504088F08D9181341CF0F0
:102F90008B350CF4805E659161341CF06B350CF45C
:102FA000605E861B611171F3990B0895881BFCCF3D
:102FB000FC010590615070400110D8F78095909504
:102FC0008E0F9F1F0895FC01615070400190011009
:102FD000D8F7809590958E0F9F1F08950F931F939C
:102FE000CF93DF938C01EB018B8181FF1BC082FFAC
:102FF0000DC02E813F818C819D812817390764F493
:10300000E881F9810193F983E88306C0E885F985B1
:10301000802F0995892B31F48E819F8101969F83A2
:103020008E8302C00FEF1FEFC801DF91CF911F9178
:103030000F910895FA01AA27283051F1203181F12A
:10304000E8946F936E7F6E5F7F4F8F4F9F4FAF4FB0
:10305000B1E03ED0B4E03CD0670F781F891F9A1FC3
:10306000A11D680F791F8A1F911DA11D6A0F711D77
:10307000811D911DA11D20D009F468943F912AE083
:10308000269F11243019305D3193DEF6CF0108956B
:10309000462F4770405D4193B3E00FD0C9F7F6CF9C
:1030A000462F4F70405D4A3318F0495D31FD405264
:1030B000419302D0A9F7EACFB4E0A69597958795FA
:1030C00077956795BA95C9F70097610571050895D9
:1030D0009B01AC010A2E0694579547953795279585
:1030E000BA95C9F7620F731F841F951FA01D08951D
:1030F0009927882708952F923F924F925F926F925F
:103100007F928F929F92AF92BF92CF92DF92EF9277
:10311000FF920F931F93CF93DF93CDB7DEB7CA1BF8
:10312000DB0B0FB6F894DEBF0FBECDBF09942A8823
:10313000398848885F846E847D848C849B84AA84CB
:10314000B984C884DF80EE80FD800C811B81AA8158
:10315000B981CE0FD11D0FB6F894DEBF0FBECDBF23
:08316000ED010895F894FFCF82
:10316800000040001400540057656C636F6D6500E3
:10317800746F004A75726173736963205061726B72
:1031880000312E204E6176696761746500322E2009
:1031980048656C702C2049276D204C6F7374210092
:1031A800332E2052657475726E20746F20537461CB
:1031B800727400312E20542D526578205472616942
:1031C8006C00322E20507465726F64616374796C80
:1031D800205061746800332E204F6C6420546F7740
:1031E8006E20526F616400342E204261636B00537D
:1031F800656E64696E67204C6F636174696F6E00F9
:10320800746F2052616E6765722053746174696FC0
:103218006E0043616E63656C00436865636B706F35
:10322800696E742000256400206F6620004E657862
:10323800743A2000200043415554494F4E005265CE
:103248007475726E20746F20747261696C005265B7
:103258006D61696E696E673A2000256600546F7467
:10326800616C20446973743A2000436F6E67726121
:10327800747300596F752776652066696E6973687F
:1032880065642100417272697665642061742073F7
:10329800746172740007D21408425494ECC2B014DA
:1032A80008423094ECC2E51408421494ECC20E159E
:1032B80008420694ECC2F3140842EA93ECC2D21412
:1032C8000842CF93ECC2D2140842B593ECC2D91489
:1032D80008421892ECC2271508427292ECC2B8153F
:1032E80008427E92ECC2F61508423492ECC24D16A2
:1032F8000842FB91ECC2CF160842D191ECC2F016FD
:1033080008422E92ECC2531708429592ECC21B1841
:1033180008427893ECC2D91408421892ECC20415FA
:103328000842B191ECC24A1508426091ECC22C15D2
:1033380008423491ECC26E150842F690ECC2B415FE
:103348000842B690ECC2451508424A90ECC2F31404
:103358000842E78FECC24500570053004E0020009A
:04336800CE03000090
:00000001FF
