:100000000C9493000C94B0000C94B0000C94B000CD
:100010000C94B0000C94B0000C94B0000C94B000A0
:100020000C94B0000C94B0000C94B0000C94B00090
:100030000C94B0000C94B0000C94B0000C94B00080
:100040000C94B0000C94B0000C94BF030C94B0005E
:100050000C94B0000C94B0000C94B0000C94B00060
:100060000C94B0000C94B00007634236B79BD8A73D
:100070001A39685618AEBAAB558C1D3CB7CC5763CD
:10008000BD6DEDFD753EF6177231BF000000803F7B
:1000900008000000BE922449123EABAAAA2ABECD97
:1000A000CCCC4C3E00000080BEABAAAAAA3E000009
:1000B0000000BF000000803F000000000008417801
:1000C000D3BB4387D1133D190E3CC3BD4282AD2B38
:1000D0003E68EC8276BED98FE1A93E4C80EFFFBE30
:1000E00001C4FF7F3F0000000000494E46494E49D1
:1000F00054594E414ECDCCCC3D0AD7233C17B7D1F5
:100100003877CC2B329595E6241FB14F0A0000209A
:10011000410000C84200401C4620BCBE4CCA1B0E19
:100120005AAEC59D740011241FBECFEFD8E0DEBFCC
:10013000CDBF11E0A0E0B1E0ECE5F7E102C0059031
:100140000D92A830B107D9F711E0A8E0B1E001C0E5
:100150001D92A232B107E1F70E94BA040C94AC0BD5
:100160000C9400006F927F928F929F92AF92BF92F9
:10017000CF92DF92EF92FF920F931F93DF93CF9373
:10018000CDB7DEB72A970FB6F894DEBF0FBECDBF4E
:100190007C013B0160E071E00E949309009709F443
:1001A0004FC2C7016CE270E00E9479096C010894AB
:1001B000C11CD11CC6010E9430094B015C010E9488
:1001C000DD057B018C01C80120E137E240E050E011
:1001D0000E94DF08F3012083B701C80120E137E264
:1001E00040E050E00E94DF0824E630E040E050E0CC
:1001F0000E94DF08F3012183B701C80124E630E043
:1002000040E050E00E94DF08F3016283C501B401C1
:1002100020E030E040E85FE30E944D069B01AC0126
:10022000CA01B90120E030E04AE754E40E94F30635
:100230000E94DD05F30174836383C6016CE270E004
:100240000E9479097C014C010894811C911CFC01DD
:1002500081818C3209F4B3C08E010F5F1F4FC8013A
:10026000B40142E050E00E94840943E050E0E40E13
:10027000F51E1B82C8010E94520920E836E948E9B0
:1002800050E00E94AD085B016C01C801B70142E07B
:1002900050E00E94840993E0892E912C8E0C9F1CC3
:1002A000CE010396B40144E050E00E9484091F820D
:1002B000C8010E94520922E330E040E050E00E9471
:1002C000AD0823E030E040E050E00E9401097901F0
:1002D0008A01D801C7018A0D9B1DAC1DBD1DF3010C
:1002E000808B918BA28BB38BC601B50120EA36E8D7
:1002F00041E050E00E940109CA01B9010E940B06C9
:100300005B016C01C801B7010E940B062CE933E5C3
:1003100049EC56E30E94F3069B01AC01C601B5010E
:100320000E940C057B018C01F30160877187828735
:10033000938720E030E048EC52E40E9470050E9470
:10034000D80524E630E0AB01249FB001259F700D55
:10035000349F700D1124882777FD8095982F0E9477
:100360000B069B01AC01C801B7010E940B0520E000
:1003700030E040E752E40E9470055B016C01F3013C
:10038000608F718F828F938FC801B70120E030E0BA
:1003900048EC52E40E9470050E94D805882777FD3A
:1003A0008095982F0E940B069B01AC01C601B501F8
:1003B0000E940C05F301608F718F828F938FC401AF
:1003C0006CE270E00E947909FC019C012F5F3F4FB5
:1003D00081818C32D1F0833551F4F301808D918D80
:1003E000A28DB38DB058808F918FA28FB38FF901FA
:1003F00080818E3411F0833519F4F30180A705C094
:100400008C3209F01AC1F30110A6C9016CE270E048
:100410000E9479097C014C010894811C911CFC010B
:1004200081818C3209F4B3C08E010F5F1F4FC80168
:10043000B40143E050E00E94840944E050E0E40E3F
:10044000F51E1C82C8010E94520920E836E948E9DD
:1004500050E00E94AD085B016C01C801B70142E0A9
:1004600050E00E94840983E0882E912C8E0C9F1C02
:10047000CE010396B40144E050E00E9484091F823B
:10048000C8010E94520922E330E040E050E00E949F
:10049000AD0823E030E040E050E00E94010979011E
:1004A0008A01D801C7018A0D9B1DAC1DBD1DF3013A
:1004B000848B958BA68BB78BC601B50120EA36E8F5
:1004C00041E050E00E940109CA01B9010E940B06F7
:1004D0005B016C01C801B7010E940B062CE933E5F2
:1004E00049EC56E30E94F3069B01AC01C601B5013D
:1004F0000E940C057B018C01F30164877587868758
:10050000978720E030E048EC52E40E9470050E949A
:10051000D80524E630E0AB01249FB001259F700D83
:10052000349F700D1124882777FD8095982F0E94A5
:100530000B069B01AC01C801B7010E940B0520E02E
:1005400030E040E752E40E9470055B016C01F3016A
:10055000648F758F868F978FC801B70120E030E0D8
:1005600048EC52E40E9470050E94D805882777FD68
:100570008095982F0E940B069B01AC01C601B50126
:100580000E940C05F301648F758F868F978FC401CD
:100590006CE270E00E947909FC019C012F5F3F4FE3
:1005A00081818C32C9F0873551F4F301848D958DAA
:1005B000A68DB78DB058848F958FA68FB78FF90110
:1005C0008081873511F0853419F4F30181A704C0C7
:1005D0008C3299F5F30111A6C9016CE270E00E941A
:1005E000790901966CE270E00E947909FC017C01B6
:1005F0000894E11CF11C81818C3229F0C7010E9412
:100600003409F30186A7C7016CE270E00E94790902
:1006100001966CE270E00E947909FC019C012F5F59
:100620003F4F81818C3261F0C9010E943009F30192
:1006300060A371A382A393A303C020E030E002C0B3
:1006400021E030E0C9012A960FB6F894DEBF0FBE54
:10065000CDBFCF91DF911F910F91FF90EF90DF9071
:10066000CF90BF90AF909F908F907F906F900895A4
:100670009BB19F709BB99BB1807F892B8BB985B152
:10068000897F85B92A9A2A9A2A9808951F93182F44
:100690000E943803812F8295807F0E9438031F912A
:1006A0000895289A0E94460386E69EE00197F1F796
:1006B0000895CF93DF93EC0102C00E94510389910A
:1006C0008823D9F7DF91CF910895CF93DF93EC0181
:1006D00002C00E945103FE01219684918823C9F72C
:1006E000DF91CF91089528980E94460386E69EE008
:1006F0000197F1F70895882311F480EC01C080E898
:10070000860F0E94730308950F931F938AB1806F21
:100710008AB984B1876084B9289880E09CE6019703
:10072000F1F780E30E94380380E094E20197F1F74B
:1007300080E30E9438038DED90E00197F1F780E3AC
:100740000E94380306E61EE0C8010197F1F780E237
:100750000E943803C8010197F1F788E20E947303F1
:100760008FE00E9473031F910F91089586E69EE02B
:100770000197F1F7089581E00E94730308951F9295
:100780000F920FB60F9211248F939F93EF93FF93C5
:100790008091C600E0910801F0910901E45FFE4FED
:1007A000808380910801909109010196909309013D
:1007B000809308018091080190910901439741F4C9
:1007C00010921F0181E090E090930B0180930A0149
:1007D000FF91EF919F918F910F900FBE0F901F90FF
:1007E000189587E690E09093C5008093C400E1ECF3
:1007F000F0E0808180618083808180688083E2EC8A
:10080000F0E08081846080830895AB0141505040C6
:10081000DC01FC01E60FF71F20E030E008C09C91EE
:1008200080818D9390832F5F3F4F4150504031978F
:1008300024173507A4F30895EF92FF920F931F93A7
:10084000CF93DF939C018B017A01C0E0D0E00EC012
:10085000C9016AE070E00E94CC08805D8083219627
:10086000C9016AE070E00E94CC089B01F801EC0F1E
:10087000FD1F2115310561F780E302C081932196A8
:10088000CE15DF05DCF3C801BE010E9405040C0F84
:100890001D1FF8011082CE01DF91CF911F910F91A2
:1008A000FF90EF9008954F925F926F927F928F9298
:1008B0009F92AF92BF92CF92DF92EF92FF920F93EF
:1008C0001F93CF93DF933B014C01EA0159010E9432
:1008D000D805DC01CB012C01BE0140E050E00E94B4
:1008E0001C04A114B104A9F16C01FE01E80FF91F69
:1008F0008EE28083B501882777FD8095982F0E942E
:100900000B069B01AC0160E070E080E291E40E9484
:1009100056077B018C01B201882777FD8095982FBF
:100920000E940B069B01AC01C401B3010E940B05A0
:10093000A80197010E94F3060E94D805DC01CB01B3
:100940000894C11CD11CCC0EDD1EB601A5010E946D
:100950001C04DF91CF911F910F91FF90EF90DF90DA
:10096000CF90BF90AF909F908F907F906F905F904F
:100970004F900895EF92FF920F931F93DF93CF93C1
:10098000CDB7DEB72A970FB6F894DEBF0FBECDBF46
:100990000E94840380E060E00E947B030E94BB030E
:1009A0000E94F103789410920B0110920A0188EBD7
:1009B000E82EF12C8E010F5F1F4F80910A0190915C
:1009C0000B01892BD1F38CE091E060E070E00E9494
:1009D000B200892B81F0609108007091090080912C
:1009E0000A0090910B00A80125E030E00E9453041A
:1009F000C8010E94590384EC99E0F7013197F1F79F
:100A00000197D9F710920B0110920A011092090177
:100A100010920801D2CF5058BB27AA270ED0A9C1E7
:100A20009AD130F09FD120F031F49F3F11F41EF4A1
:100A30008FC10EF4E095E7FB77C1E92FABD180F3CE
:100A4000BA17620773078407950718F071F49EF5CB
:100A5000C3C10EF4E0950B2EBA2FA02D0B01B901E6
:100A600090010C01CA01A0011124FF27591B99F024
:100A7000593F50F4503E68F11A16F040A22F232F30
:100A8000342F4427585FF3CF469537952795A79580
:100A9000F0405395C9F77EF41F16BA0B620B730B27
:100AA000840BBAF09150A1F0FF0FBB1F661F771F98
:100AB000881FC2F70EC0BA0F621F731F841F48F44D
:100AC000879577956795B795F7959E3F08F0B3CFD3
:100AD0009395880F08F09927EE0F979587950895BD
:100AE0000CD047C13FD140F036D130F021F45F3F08
:100AF00019F01AC1511171C12BC14CD198F399232E
:100B0000C9F35523B1F3951B550BBB27AA276217D1
:100B10007307840738F09F5F5F4F220F331F441F16
:100B2000AA1FA9F333D00E2E3AF0E0E830D091504E
:100B30005040E695001CCAF729D0FE2F27D0660F3B
:100B4000771F881FBB1F261737074807AB07B0E87A
:100B500009F0BB0B802DBF01FF2793585F4F2AF090
:100B60009E3F510568F0E0C038C15F3FECF3983E0E
:100B7000DCF3869577956795B795F7959F5FC9F7ED
:100B8000880F911D9695879597F90895E1E0660F76
:100B9000771F881FBB1F621773078407BA0720F0EF
:100BA000621B730B840BBA0BEE1F88F7E095089558
:100BB00004D06894B11111C10895F4D088F09F5702
:100BC00090F0B92F9927B751A0F0D1F0660F771F99
:100BD000881F991F1AF0BA95C9F712C0B13081F079
:100BE000FBD0B1E00895F8C0672F782F8827B85F51
:100BF00039F0B93FCCF3869577956795B395D9F7DA
:100C00003EF490958095709561957F4F8F4F9F4FE3
:100C10000895E89409C097FB3EF4909580957095EF
:100C200061957F4F8F4F9F4F9923A9F0F92F96E938
:100C3000BB279395F695879577956795B795F111AD
:100C4000F8CFFAF4BB0F11F460FF1BC06F5F7F4F4A
:100C50008F4F9F4F16C0882311F096E911C077235C
:100C600021F09EE8872F762F05C0662371F096E865
:100C7000862F70E060E02AF09A95660F771F881F34
:100C8000DAF7880F9695879597F9089564D018F04C
:100C900011F068D038F45CC0A0C0E92F7BD0B0F36D
:100CA0005523C9F3E7FB6217730784079507A8F17B
:100CB00099F3E92FFF2788232AF03197660F771FD2
:100CC000881FDAF7952F5527442332F09150504072
:100CD000220F331F441FD2F7BB27E91BF50B621B02
:100CE000730B840BB109C1F222F4620F731F841FCE
:100CF000B11D31972AF0660F771F881FBB1FEFCFFA
:100D0000915050405AF041F0882332F0660F771F1F
:100D1000881F91505040C1F793950CC086957795E8
:100D200067959F5FD9F7F8CF97F99F6780E870E0E4
:100D300060E008959F3F31F0915020F487957795BA
:100D40006795B795880F911D9695879597F90895A2
:100D50009FEF80EC089500240A94161617061806D3
:100D60000906089500240A941216130614060506AF
:100D70000895092E0394000C11F4882352F0BB0F40
:100D800040F4BF2B11F460FF04C06F5F7F4F8F4FA3
:100D90009F4F089557FD9058440F551F59F05F3FDE
:100DA00071F04795880F97FB991F61F09F3F79F08D
:100DB00087950895121613061406551FF2CF46950F
:100DC000F1DF08C0161617061806991FF1CF869591
:100DD0007105610508940895E894BB276627772775
:100DE000CB0197F908950BD0C4CFB5DF28F0BADF57
:100DF00018F0952309F098CFABCF1124EECFCADFBE
:100E0000A0F3959FD1F3950F50E0551F629FF0011D
:100E1000729FBB27F00DB11D639FAA27F00DB11D76
:100E2000AA1F649F6627B00DA11D661F829F2227FF
:100E3000B00DA11D621F739FB00DA11D621F839F86
:100E4000A00D611D221F749F3327A00D611D231F5C
:100E5000849F600D211D822F762F6A2F11249F57AA
:100E600050408AF0E1F088234AF0EE0FFF1FBB1FCD
:100E7000661F771F881F91505040A9F79E3F51056C
:100E800070F052CFAACF5F3FECF3983EDCF386952B
:100E900077956795B795F795E7959F5FC1F7FE2B17
:100EA000880F911D9695879597F90895FA01EE0F91
:100EB000FF1F30962105310599F16115710561F427
:100EC0008038BFE39B0749F168949038810561F051
:100ED0008038BFEF9B0741F0992342F5FF3FE105C2
:100EE0003105210511F1E8940894E795D901AA2369
:100EF00029F4AB2FBE2FF85FD0F310C0FF5F70F462
:100F0000A695E0F7F73950F019F0FF3A38F49F77DB
:100F10009F930CD00F9007FC905808953EF018CF87
:100F200060E070E080E89FE308954FE79F775F936C
:100F30004F933F932F939ED02F913F914F915F916D
:100F400052DF05C019F40EF0EFCE46CF01CF2ADFF5
:100F5000C8F39638C0F707F80F92E8942BE33AEA03
:100F600048EB5FE74EDF0F920F920F924DB75EB7DF
:100F70000F92C0D0E8E6F0E016D04F915F91EF916C
:100F8000FF91E595EE1FFF1F49F0FE57E0684427EB
:100F9000EE0F441FFA95E1F74195550B32D00F90B3
:100FA00007FE26C00895DF93CF931F930F93FF9200
:100FB000EF92DF927B018C01689405C0DA2EEF017D
:100FC0001EDFFE01E894A59125913591459155913B
:100FD000AEF3EF0132DDFE019701A801DA9479F753
:100FE000DF90EF90FF900F911F91CF91DF910895C7
:100FF0009B01AC0160E070E080E89FE371CD94CE8E
:1010000099CED0DEE8F39923D9F3940F511DBBF3A9
:101010009150504094F059F0882332F0660F771FBA
:10102000881F91505040C1F79E3F510544F7880FEB
:10103000911D9695879597F908955F3FACF0983E7E
:101040009CF0BB27869577956795B79508F4B160B6
:101050009395C1F7BB0F58F711F460FFE8CF6F5FAE
:101060007F4F8F4F9F4FE3CFB8CE0EF063CE70CE41
:1010700068945ACE97DEC8F39923D1F3C6F3DF9371
:10108000CF931F930F93FF92C92FDD2788232AF058
:101090002197660F771F881FDAF720E030E040E8DD
:1010A0005FEB9FE3883920F0803E30F021968F7708
:1010B000B3DCE0E9F0E003C0AFDCEDEBF0E073DFC0
:1010C0008B01BE01EC01FB2E6F5771097595771FDF
:1010D000880B990BA0DD28E132E741E35FE38FDE67
:1010E000AF2D9801AE01FF900F911F91CF91DF912D
:1010F000A4DC3FCEFA01DC01AA0FBB1F9B01AC01AF
:10110000BF5728F422273327442750781FC0B751F0
:1011100088F4AB2F0024469537952795011CA3959D
:10112000D2F3002069F0220F331F441FB395DAF386
:101130000DD071CC61307105A0E88A07B94630F452
:101140009B01AC016627772788279078309621F09D
:1011500020833183428353830895629FD001739F1C
:10116000F001829FE00DF11D649FE00DF11D929F43
:10117000F00D839FF00D749FF00D659FF00D992782
:10118000729FB00DE11DF91F639FB00DE11DF91FA6
:10119000BD01CF011124089597FB092E07260AD01F
:1011A00077FD04D049D006D000201AF470956195DF
:1011B0007F4F0895F6F7909581959F4F0895A1E28E
:1011C0001A2EAA1BBB1BFD010DC0AA1FBB1FEE1FC1
:1011D000FF1FA217B307E407F50720F0A21BB30B0C
:1011E000E40BF50B661F771F881F991F1A9469F788
:1011F00060957095809590959B01AC01BD01CF01E4
:10120000089597FB092E05260ED057FD04D0D7DF91
:101210000AD0001C38F450954095309521953F4FE9
:101220004F4F5F4F0895F6F79095809570956195B3
:101230007F4F8F4F9F4F0895AA1BBB1B51E107C0E3
:10124000AA1FBB1FA617B70710F0A61BB70B881F56
:10125000991F5A95A9F780959095BC01CD010895E5
:10126000662777270C94CA09FC0188279927E894F8
:1012700021912032E9F3293010F02E30C8F32B32BF
:1012800041F02D3239F4689404C00E94C209820FE3
:10129000911D219120532A30C0F31EF49095819521
:1012A0009F4F08951F93FC0199278827BC01E8945C
:1012B00011911032E9F3193010F01E30C8F31B32CF
:1012C00051F01D3249F4689406C00E94AD09610FC7
:1012D000711D811D911D119110531A30B0F33EF410
:1012E00090958095709561957F4F8F4F9F4F1F917F
:1012F0000895FC018191861721F08823D9F7992759
:1013000008953197CF010895FB01DC014150504011
:1013100048F001900D920020C9F701C01D92415084
:101320005040E0F70895FB0151915523A9F0BF010A
:10133000DC014D9145174111E1F759F4CD010190C0
:10134000002049F04D9140154111C9F3FB014111B5
:10135000EFCF81E090E001970895592F482F372F64
:10136000262F660F771F881F991F660F771F881F0C
:10137000991F620F731F841F951F660F771F881FA9
:10138000991F08957AE0979F902D879F802D910D4A
:1013900011240895A0E0B0E0E0EDF9E00C947B0B9F
:1013A000EC015B016115710519F0FB0191838083EC
:1013B000F9908F2D90E00E942A0B892BC9F7FDE24E
:1013C000FF1621F4F990EE24E39405C02BE2F21607
:1013D00009F4F990EE248E0101501040C8016AEE24
:1013E00070E043E050E00E94320B892B01F58E0142
:1013F0000E5F1F4FC8016DEE70E045E050E00E94A7
:10140000320B892B19F48E01095F1F4FA114B1040F
:1014100019F0F50111830083E0FC04C070E090E056
:1014200080E814C070E090E080E86FEF08C1C80168
:1014300062EF70E043E050E00E94320B892B69F4C8
:10144000A114B10429F470E090E080EC6FE7F7C0DC
:101450002296F501D183C083F6CF8824992440E0F9
:1014600050E060E070E0EF2DE053EA30A0F5F2E0EC
:10147000EF2A8E2D90E09C0128703070E2FE06C0AD
:10148000232B79F50894811C911C2BC0232B19F078
:10149000089481089108DB01CA0112E0880F991FA6
:1014A000AA1FBB1F1A95D1F7480F591F6A1F7B1F30
:1014B000440F551F661F771F4E0F511D611D711D73
:1014C000483929E9520729E9620729E1720748F0FA
:1014D00084E0E82A06C0EE3F31F4E3FC39C098E02E
:1014E000E92AF990C0CFE53311F0E53189F529916A
:1014F0002D3219F4E0E1EE2A05C02B3219F081E01B
:1015000090E003C0299182E090E0E22FE053EA30BE
:1015100018F0C81BD90B1CC020E030E0FCE02038DC
:101520003F075CF4C901880F991F880F991F280F86
:10153000391F220F331F2E0F311DE991E053EA307E
:1015400068F3E4FE03C0309521953F4F820E931E51
:10155000CE2CDD24E1FE07C0A114B10421F02197B7
:10156000F501D183C083CB01BA010E9409067B013A
:101570008C01F3E0CF22DD2423E0C216D10421F454
:1015800017FB109517F9109557016801C801B701AD
:1015900020E030E040E050E00E944A0B882309F44C
:1015A0004AC097FE0DC029E0E22E21E0F22E909471
:1015B000819491089394C0E2D0E000E010E012C062
:1015C00091E2E92E91E0F92EF6CFF70125913591C0
:1015D00045915491C601B5010E94F3065B016C016F
:1015E0008C1A9D0A8C169D0684F7D595C7950F5FBA
:1015F0001F4F0630110529F08CEF9FEFE80EF91E02
:10160000F1CFC501D6017C018D018C2D880F8D2D68
:10161000881F8F3F51F0C601B50120E030E040E067
:1016200050E00E944A0B882331F482E290E09093CC
:101630002101809320017E2D9F2D802F612F272F48
:10164000392F482F562FB901CA01CDB7DEB7ECE0CC
:101650000C94970B911146C0803219F08950855037
:10166000D0F70895FB01DC014150504088F08D9186
:1016700081341CF08B350CF4805E659161341CF074
:101680006B350CF4605E861B611171F3990B089544
:10169000881BFCCF03D008F481E00895990F00085F
:1016A000550FAA0BE0E8FEEF16161706E807F90734
:1016B000C0F012161306E407F50798F0621B730BCF
:1016C000840B950B39F40A2661F0232B242B252B50
:1016D00021F408950A2609F4A140A6958FEF811DF3
:1016E000811D08959927882708952F923F924F9240
:1016F0005F926F927F928F929F92AF92BF92CF92A2
:10170000DF92EF92FF920F931F93CF93DF93CDB7AA
:10171000DEB7CA1BDB0B0FB6F894DEBF0FBECDBF22
:1017200009942A88398848885F846E847D848C84F3
:101730009B84AA84B984C884DF80EE80FD800C81FC
:101740001B81AA81B981CE0FD11D0FB6F894DEBFDF
:0C1750000FBECDBFED010895F894FFCF4F
:08175C002447504747410000FB
:00000001FF
