:100000000C9452000C946F000C946F000C946F00D1
:100010000C946F000C946F000C946F000C946F00A4
:100020000C946F000C946F000C946F000C949F0361
:100030000C946F000C946F000C946F000C946F0084
:100040000C946F000C946F000C94A9030C946F0037
:100050000C946F000C946F000C946F000C946F0064
:100060000C946F000C946F00494E46494E49545908
:100070004E414ECDCCCC3D0AD7233C17B7D1387773
:10008000CC2B329595E6241FB14F0A000020410089
:1000900000C84200401C4620BCBE4CCA1B0E5AAED3
:1000A000C59D740011241FBECFEFD8E0DEBFCDBFC9
:1000B00011E0A0E0B1E0E4E5F3E102C005900D92AB
:1000C000AA30B107D9F711E0AAE0B1E001C01D9252
:1000D000AA35B107E1F70E94F0030C94A8090C942B
:1000E00000006F927F928F929F92AF92BF92CF92B9
:1000F000DF92EF92FF920F931F93DF93CF93CDB7D1
:10010000DEB72A970FB6F894DEBF0FBECDBF7C01D5
:100110003B0160E071E00E944A07009709F44EC27B
:10012000C7016CE270E00E9430076C010894C11CAA
:10013000D11CC6010E94E7064B015C010E9412051A
:100140007B018C01C80120E137E240E050E00E94D1
:10015000AA06F3012083B701C80120E137E240E09D
:1001600050E00E94AA0624E630E040E050E00E9401
:10017000AA06F3012183B701C80124E630E040E07C
:1001800050E00E94AA06F3016283C501B40120E099
:1001900030E040E85FE30E9482059B01AC01CA01A8
:1001A000B90120E030E04AE754E40E9428060E94AA
:1001B0001205F30174836383C6016CE270E00E9450
:1001C00030077C014C010894811C911CFC01818149
:1001D0008C3209F4B3C08E010F5F1F4FC801B40108
:1001E00042E050E00E943B0743E050E0E40EF51E81
:1001F0001B82C8010E94090720E836E948E950E05F
:100200000E948B065B016C01C801B70142E050E01F
:100210000E943B0793E0892E912C8E0C9F1CCE01EF
:100220000396B40144E050E00E943B071F82C801DE
:100230000E94090722E330E040E050E00E948B0674
:1002400023E030E040E050E00E94CC0679018A01D2
:10025000D801C7018A0D9B1DAC1DBD1DF301808B0C
:10026000918BA28BB38BC601B50120EA36E841E041
:1002700050E00E94CC06CA01B9010E9440055B0112
:100280006C01C801B7010E9440052CE933E549EC37
:1002900056E30E9428069B01AC01C601B5010E94ED
:1002A00041047B018C01F30160877187828793870A
:1002B00020E030E048EC52E40E94A5040E940D05C5
:1002C00024E630E0AB01249FB001259F700D349FE0
:1002D000700D1124882777FD8095982F0E94400586
:1002E0009B01AC01C801B7010E94400420E030E04E
:1002F00040E752E40E94A5045B016C01F301608FAA
:10030000718F828F938FC801B70120E030E048ECF5
:1003100052E40E94A5040E940D05882777FD809570
:10032000982F0E9440059B01AC01C601B5010E94B7
:100330004104F301608F718F828F938FC4016CE24F
:1003400070E00E943007FC019C012F5F3F4F8181CC
:100350008C32D1F0833551F4F301808D918DA28DD3
:10036000B38DB058808F918FA28FB38FF9018081A8
:100370008E3411F0833519F4F30180A705C08C3257
:1003800009F01CC1F30110A6C9016CE270E00E94E3
:1003900030077C014C010894811C911CFC01818177
:1003A0008C3209F4B3C08E010F5F1F4FC801B40136
:1003B00043E050E00E943B0744E050E0E40EF51EAD
:1003C0001C82C8010E94090720E836E948E950E08C
:1003D0000E948B065B016C01C801B70142E050E04E
:1003E0000E943B0783E0882E912C8E0C9F1CCE012F
:1003F0000396B40144E050E00E943B071F82C8010D
:100400000E94090722E330E040E050E00E948B06A2
:1004100023E030E040E050E00E94CC0679018A0100
:10042000D801C7018A0D9B1DAC1DBD1DF301848B36
:10043000958BA68BB78BC601B50120EA36E841E063
:1004400050E00E94CC06CA01B9010E9440055B0140
:100450006C01C801B7010E9440052CE933E549EC65
:1004600056E30E9428069B01AC01C601B5010E941B
:1004700041047B018C01F301648775878687978728
:1004800020E030E048EC52E40E94A5040E940D05F3
:1004900024E630E0AB01249FB001259F700D349F0E
:1004A000700D1124882777FD8095982F0E944005B4
:1004B0009B01AC01C801B7010E94400420E030E07C
:1004C00040E752E40E94A5045B016C01F301648FD4
:1004D000758F868F978FC801B70120E030E048EC18
:1004E00052E40E94A5040E940D05882777FD80959F
:1004F000982F0E9440059B01AC01C601B5010E94E6
:100500004104F301648F758F868F978FC4016CE26D
:1005100070E00E943007FC019C012F5F3F4F8181FA
:100520008C32C9F0873551F4F301848D958DA68DF9
:10053000B78DB058848F958FA68FB78FF9018081C2
:10054000873511F0853419F4F30181A704C08C328A
:10055000A9F5F30111A6C9016CE270E00E94300711
:1005600001966CE270E00E943007FC017C01089467
:10057000E11CF11C81818C3229F0C7010E94EB063D
:10058000F30186A7C7016CE270E00E943007019674
:100590006CE270E00E943007FC019C012F5F3F4F2E
:1005A00081818C3241F0C9010E94E706F30160A30A
:1005B00071A382A393A321E030E002C020E030E0E9
:1005C000C9012A960FB6F894DEBF0FBECDBFCF91FA
:1005D000DF911F910F91FF90EF90DF90CF90BF9030
:1005E000AF909F908F907F906F9008959BB19F7078
:1005F0009BB99BB1807F892B8BB985B1897F85B9E8
:100600002A9A2A9A2A9808951F93182F0E94F60270
:10061000812F8295807F0E94F6021F910895289A6B
:100620000E94040386E69EE00197F1F70895CF93B8
:10063000DF93EC0102C00E940F0389918823D9F750
:10064000DF91CF910895CF93DF93EC0102C00E9418
:100650000F03FE01219684918823C9F7DF91CF9182
:10066000089528980E94040386E69EE00197F1F71A
:100670000895882311F480EC01C080E8860F0E9461
:10068000310308950F931F938AB1806F8AB984B1A3
:10069000876084B9289880E09CE60197F1F780E3B1
:1006A0000E94F60280E094E20197F1F780E30E9455
:1006B000F6028DED90E00197F1F780E30E94F602DB
:1006C00006E61EE0C8010197F1F780E20E94F602FB
:1006D000C8010197F1F788E20E9431038FE00E9480
:1006E00031031F910F91089586E69EE00197F1F77F
:1006F000089587E690E09093C5008093C400E1ECF4
:10070000F0E0808180618083808180688083E2EC7A
:10071000F0E08081846080830895A1E8B0E02C91AE
:1007200028602C93EFE6F0E02081226020839093F4
:100730008900809388008C9184608C9308951F9227
:100740000F920FB60F9211240F900FBE0F901F90B3
:1007500018951F920F920FB60F9211242F933F936B
:100760004F935F936F937F938F939F93AF93BF93B9
:10077000EF93FF9387E091E00E9417038091C600FA
:10078000E0910A01F0910B01E25FFE4F80838091BE
:100790000A0190910B01019690930B0180930A013D
:1007A00080910A0190910B018A34910541F41092D5
:1007B000580181E090E090930D0180930C01FF912E
:1007C000EF91BF91AF919F918F917F916F915F91C9
:1007D0004F913F912F910F900FBE0F901F90189542
:1007E000EF92FF920F931F93DF93CF9300D000D02F
:1007F0000F92CDB7DEB70E94420380E060E00E9416
:100800003903F8940E947903789410920D011092A4
:100810000C017E010894E11CF11C08EB10E08091B2
:100820000C0190910D01B7014AE050E00E9464076D
:100830000E94170380910C0190910D01019779F7A7
:100840008EE091E060E070E00E947100892B41F041
:1008500080E060E00E9439038EE091E00E9417037F
:1008600084EC99E0F8013197F1F70197D9F71092EC
:100870000D0110920C0110920B0110920A01CFCFC2
:100880005058BB27AA270ED0A9C19AD130F09FD1CA
:1008900020F031F49F3F11F41EF48FC10EF4E09567
:1008A000E7FB77C1E92FABD180F3BA176207730773
:1008B0008407950718F071F49EF5C3C10EF4E09516
:1008C0000B2EBA2FA02D0B01B90190010C01CA010A
:1008D000A0011124FF27591B99F0593F50F4503EB5
:1008E00068F11A16F040A22F232F342F4427585FA7
:1008F000F3CF469537952795A795F0405395C9F7BF
:100900007EF41F16BA0B620B730B840BBAF0915076
:10091000A1F0FF0FBB1F661F771F881FC2F70EC015
:10092000BA0F621F731F841F48F4879577956795E8
:10093000B795F7959E3F08F0B3CF9395880F08F0D1
:100940009927EE0F9795879508950CD047C13FD111
:1009500040F036D130F021F45F3F19F01AC1511147
:1009600071C12BC14CD198F39923C9F35523B1F32D
:10097000951B550BBB27AA2762177307840738F00E
:100980009F5F5F4F220F331F441FAA1FA9F333D06D
:100990000E2E3AF0E0E830D091505040E695001C21
:1009A000CAF729D0FE2F27D0660F771F881FBB1FDD
:1009B000261737074807AB07B0E809F0BB0B802DB7
:1009C000BF01FF2793585F4F2AF09E3F510568F003
:1009D000E0C038C15F3FECF3983EDCF38695779535
:1009E0006795B795F7959F5FC9F7880F911D969505
:1009F000879597F90895E1E0660F771F881FBB1F61
:100A0000621773078407BA0720F0621B730B840B0D
:100A1000BA0BEE1F88F7E095089504D06894B111E1
:100A200011C10895F4D088F09F5790F0B92F9927FD
:100A3000B751A0F0D1F0660F771F881F991F1AF0E9
:100A4000BA95C9F712C0B13081F0FBD0B1E008957A
:100A5000F8C0672F782F8827B85F39F0B93FCCF3FB
:100A6000869577956795B395D9F73EF490958095DF
:100A7000709561957F4F8F4F9F4F0895E89409C0FF
:100A800097FB3EF490958095709561957F4F8F4FC1
:100A90009F4F9923A9F0F92F96E9BB279395F695D7
:100AA000879577956795B795F111F8CFFAF4BB0F55
:100AB00011F460FF1BC06F5F7F4F8F4F9F4F16C0B9
:100AC000882311F096E911C0772321F09EE8872F43
:100AD000762F05C0662371F096E8862F70E060E0FF
:100AE0002AF09A95660F771F881FDAF7880F969578
:100AF000879597F9089564D018F011F068D038F40C
:100B00005CC0A0C0E92F7BD0B0F35523C9F3E7FB4D
:100B10006217730784079507A8F199F3E92FFF2758
:100B200088232AF03197660F771F881FDAF7952FF1
:100B30005527442332F091505040220F331F441F59
:100B4000D2F7BB27E91BF50B621B730B840BB109B2
:100B5000C1F222F4620F731F841FB11D31972AF076
:100B6000660F771F881FBB1FEFCF915050405AF080
:100B700041F0882332F0660F771F881F9150504054
:100B8000C1F793950CC08695779567959F5FD9F7C8
:100B9000F8CF97F99F6780E870E060E008959F3F85
:100BA00031F0915020F4879577956795B795880F28
:100BB000911D9695879597F908959FEF80EC08957C
:100BC00000240A941616170618060906089500242C
:100BD0000A9412161306140605060895092E0394A6
:100BE000000C11F4882352F0BB0F40F4BF2B11F41A
:100BF00060FF04C06F5F7F4F8F4F9F4F089557FD79
:100C00009058440F551F59F05F3F71F04795880F7A
:100C100097FB991F61F09F3F79F087950895121611
:100C200013061406551FF2CF4695F1DF08C01616BD
:100C300017061806991FF1CF86957105610508946E
:100C40000895E894BB2766277727CB0197F9089585
:100C50000BD0C4CFB5DF28F0BADF18F0952309F028
:100C600098CFABCF1124EECFCADFA0F3959FD1F37D
:100C7000950F50E0551F629FF001729FBB27F00D4A
:100C8000B11D639FAA27F00DB11DAA1F649F66279F
:100C9000B00DA11D661F829F2227B00DA11D621FEE
:100CA000739FB00DA11D621F839FA00D611D221FA8
:100CB000749F3327A00D611D231F849F600D211D8C
:100CC000822F762F6A2F11249F5750408AF0E1F02F
:100CD00088234AF0EE0FFF1FBB1F661F771F881F78
:100CE00091505040A9F79E3F510570F052CFAACFC6
:100CF0005F3FECF3983EDCF3869577956795B79563
:100D0000F795E7959F5FC1F7FE2B880F911D96958C
:100D1000879597F90895629FD001739FF001829F94
:100D2000E00DF11D649FE00DF11D929FF00D839F7A
:100D3000F00D749FF00D659FF00D9927729FB00D17
:100D4000E11DF91F639FB00DE11DF91FBD01CF012A
:100D500011240895A1E21A2EAA1BBB1BFD010DC090
:100D6000AA1FBB1FEE1FFF1FA217B307E407F5075B
:100D700020F0A21BB30BE40BF50B661F771F881F37
:100D8000991F1A9469F760957095809590959B01CD
:100D9000AC01BD01CF01089597FB092E05260ED0A9
:100DA00057FD04D0D7DF0AD0001C38F45095409589
:100DB000309521953F4F4F4F5F4F0895F6F790952F
:100DC0008095709561957F4F8F4F9F4F089566274F
:100DD00077270C94A207FC0188279927E894219192
:100DE0002032E9F3293010F02E30C8F32B3241F0D5
:100DF0002D3239F4689404C00E949A07820F911D25
:100E0000219120532A30C0F31EF4909581959F4F75
:100E100008951F93FC0199278827BC01E89411913C
:100E20001032E9F3193010F01E30C8F31B3251F0C4
:100E30001D3249F4689406C00E948507610F711D38
:100E4000811D911D119110531A30B0F33EF490950D
:100E50008095709561957F4F8F4F9F4F1F9108959B
:100E6000FC018191861721F08823D9F799270895ED
:100E70003197CF010895FB01DC014150504048F00B
:100E800001900D920020C9F701C01D9241505040C1
:100E9000E0F70895FB0151915523A9F0BF01DC0152
:100EA0004D9145174111E1F759F4CD010190002012
:100EB00049F04D9140154111C9F3FB014111EFCFAC
:100EC00081E090E001970895FB019F01E894423092
:100ED000C4F04532B4F44A3029F497FB1EF49095DF
:100EE00081959F4F642F77270E945D09805D8A332B
:100EF0000CF0895D8193CB010097A1F716F45DE2B8
:100F000051931082C9010C942209592F482F372F71
:100F1000262F660F771F881F991F660F771F881F60
:100F2000991F620F731F841F951F660F771F881FFD
:100F3000991F08957AE0979F902D879F802D910D9E
:100F400011240895A0E0B0E0E8EAF7E00C947709F6
:100F5000EC015B016115710519F0FB019183808340
:100F6000F9908F2D90E00E940209892BC9F7FDE2CC
:100F7000FF1621F4F990EE24E39405C02BE2F2165B
:100F800009F4F990EE248E0101501040C80168E682
:100F900070E043E050E00E940A09892B01F58E01C0
:100FA0000E5F1F4FC8016BE670E045E050E00E9405
:100FB0000A09892B19F48E01095F1F4FA114B1048E
:100FC00019F0F50111830083E0FC04C070E090E0AB
:100FD00080E814C070E090E080E86FEF08C1C801BD
:100FE00060E770E043E050E00E940A09892B69F451
:100FF000A114B10429F470E090E080EC6FE7F7C031
:101000002296F501D183C083F6CF8824992440E04D
:1010100050E060E070E0EF2DE053EA30A0F5F2E040
:10102000EF2A8E2D90E09C0128703070E2FE06C001
:10103000232B79F50894811C911C2BC0232B19F0CC
:10104000089481089108DB01CA0112E0880F991FFA
:10105000AA1FBB1F1A95D1F7480F591F6A1F7B1F84
:10106000440F551F661F771F4E0F511D611D711DC7
:10107000483929E9520729E9620729E1720748F04E
:1010800084E0E82A06C0EE3F31F4E3FC39C098E082
:10109000E92AF990C0CFE53311F0E53189F52991BE
:1010A0002D3219F4E0E1EE2A05C02B3219F081E06F
:1010B00090E003C0299182E090E0E22FE053EA3013
:1010C00018F0C81BD90B1CC020E030E0FCE0203831
:1010D0003F075CF4C901880F991F880F991F280FDB
:1010E000391F220F331F2E0F311DE991E053EA30D3
:1010F00068F3E4FE03C0309521953F4F820E931EA6
:10110000CE2CDD24E1FE07C0A114B10421F021970B
:10111000F501D183C083CB01BA010E943E057B015A
:101120008C01F3E0CF22DD2423E0C216D10421F4A8
:1011300017FB109517F9109557016801C801B70101
:1011400020E030E040E050E00E943209882309F4BA
:101150004AC097FE0DC027E8E22E20E0F22E9094C0
:10116000819491089394C0E2D0E000E010E012C0B6
:101170009FE9E92E90E0F92EF6CFF7012591359100
:1011800045915491C601B5010E9428065B016C018E
:101190008C1A9D0A8C169D0684F7D595C7950F5F0E
:1011A0001F4F0630110529F08CEF9FEFE80EF91E56
:1011B000F1CFC501D6017C018D018C2D880F8D2DBD
:1011C000881F8F3F51F0C601B50120E030E040E0BC
:1011D00050E00E943209882331F482E290E090933B
:1011E0005901809358017E2D9F2D802F612F272F2D
:1011F000392F482F562FB901CA01CDB7DEB7ECE021
:101200000C949309911156C0803219F08950855081
:10121000D0F70895FB01DC014150504088F08D91DA
:1012200081341CF08B350CF4805E659161341CF0C8
:101230006B350CF4605E861B611171F3990B089598
:10124000881BFCCFDC01FC01672F71917723E1F74C
:10125000329704C07C916D9370836291AE17BF0783
:10126000C8F3089503D008F481E00895990F0008A9
:10127000550FAA0BE0E8FEEF16161706E807F90768
:10128000C0F012161306E407F50798F0621B730B03
:10129000840B950B39F40A2661F0232B242B252B84
:1012A00021F408950A2609F4A140A6958FEF811D27
:1012B000811D0895992788270895AA1BBB1B51E11A
:1012C00007C0AA1FBB1FA617B70710F0A61BB70BB6
:1012D000881F991F5A95A9F780959095BC01CD015B
:1012E00008952F923F924F925F926F927F928F92CA
:1012F0009F92AF92BF92CF92DF92EF92FF920F93A5
:101300001F93CF93DF93CDB7DEB7CA1BDB0B0FB6AE
:10131000F894DEBF0FBECDBF09942A88398848886B
:101320005F846E847D848C849B84AA84B984C88401
:10133000DF80EE80FD800C811B81AA81B981CE0FF8
:10134000D11D0FB6F894DEBF0FBECDBFED010895DD
:04135000F894FFCF3F
:0A135400244750474741003C0000C9
:00000001FF
