:100000000C94B8000C94D5000C94D5000C94D50039
:100010000C94D5000C945F040C94D5000C94D5007E
:100020000C94D5000C94D5000C94D5000C94D500FC
:100030000C94D5000C94D5000C94D5000C94D500EC
:100040000C94D5000C94D5000C94FB030C94D500B3
:100050000C94D5000C94D5000C94D5000C94D500CC
:100060000C94D5000C94D500084AD73B3BCE016ECA
:1000700084BCBFFDC12F3D6C74319ABD56833DDAFF
:100080003D00C77F11BED9E4BB4C3E916BAAAABE0E
:10009000000000803F05A84CCDB2D44EB93836A937
:1000A000020C50B9918688083CA6AAAA2ABE000074
:1000B00000803F07634236B79BD8A71A39685618A5
:1000C000AEBAAB558C1D3CB7CC5763BD6DEDFD751D
:1000D0003EF6177231BF000000803F08000000BEEE
:1000E000922449123EABAAAA2ABECDCCCC4C3E00EB
:1000F000000080BEABAAAAAA3E00000000BF00001C
:1001000000803F0000000000084178D3BB4387D146
:10011000133D190E3CC3BD4282AD2B3E68EC827686
:10012000BED98FE1A93E4C80EFFFBE01C4FF7F3FE7
:100130000000000000494E46494E4954594E414E78
:10014000CDCCCC3D0AD7233C17B7D13877CC2B3256
:100150009595E6241FB14F0A000020410000C842D7
:1001600000401C4620BCBE4CCA1B0E5AAEC59D7436
:1001700011241FBECFEFD8E0DEBFCDBF12E0A0E05C
:10018000B1E0EAEEF1E202C005900D92AA31B107AA
:10019000D9F712E0AAE1B2E001C01D92A03DB1077B
:1001A000E1F70E949B040C94F3100C9400006F92F2
:1001B0007F928F929F92AF92BF92CF92DF92EF92F7
:1001C000FF920F931F93DF93CF93CDB7DEB72A979C
:1001D0000FB6F894DEBF0FBECDBF3B016CE270E0FE
:1001E0000E94020F6C010894C11CD11CC6010E9420
:1001F000AE0E4B015C010E94970A7B018C01C80185
:1002000020E137E240E050E00E945D0EF3012083E0
:10021000B701C80120E137E240E050E00E945D0EE6
:1002200024E630E040E050E00E945D0EF3012183BF
:10023000B701C80124E630E040E050E00E945D0EC6
:10024000F3016283C501B40120E030E040E85FE3E0
:100250000E94070B9B01AC01CA01B90120E030E00C
:100260004AE754E40E943A0C0E94970AF30174830F
:100270006383C6016CE270E00E94020F7C014C01B6
:100280000894811C911CFC0181818C3209F4B3C05B
:100290008E010F5F1F4FC801B40142E050E00E9481
:1002A0000D0F43E050E0E40EF51E1B82C8010E94D2
:1002B000D00E20E836E948E950E00E942B0E5B01A1
:1002C0006C01C801B70142E050E00E940D0F93E0BD
:1002D000892E912C8E0C9F1CCE010396B40144E014
:1002E00050E00E940D0F1F82C8010E94D00E22E331
:1002F00030E040E050E00E942B0E23E030E040E090
:1003000050E00E947F0E79018A01D801C7018A0D51
:100310009B1DAC1DBD1DF301808B918BA28BB38BFC
:10032000C601B50120EA36E841E050E00E947F0EA8
:10033000CA01B9010E94C50A5B016C01C801B7017D
:100340000E94C50A2CE933E549EC56E30E943A0CB9
:100350009B01AC01C601B5010E945D097B018C01C6
:10036000F301608771878287938720E030E048EC53
:1003700052E40E942A0A0E94920A24E630E0AB016D
:10038000249FB001259F700D349F700D1124882784
:1003900077FD8095982F0E94C50A9B01AC01C8018A
:1003A000B7010E945C0920E030E040E752E40E947F
:1003B0002A0A5B016C01F301608F718F828F938F2A
:1003C000C801B70120E030E048EC52E40E942A0A5C
:1003D0000E94920A882777FD8095982F0E94C50A6F
:1003E0009B01AC01C601B5010E945D09F301608F5C
:1003F000718F828F938FC4016CE270E00E94020FB4
:10040000FC019C012F5F3F4F81818C32D1F08335FD
:1004100051F4F301808D918DA28DB38DB058808FF2
:10042000918FA28FB38FF90180818E3411F08335C3
:1004300019F4F30180A705C08C3209F01CC1F30147
:1004400010A6C9016CE270E00E94020F7C014C0111
:100450000894811C911CFC0181818C3209F4B3C089
:100460008E010F5F1F4FC801B40143E050E00E94AE
:100470000D0F44E050E0E40EF51E1C82C8010E94FE
:10048000D00E20E836E948E950E00E942B0E5B01CF
:100490006C01C801B70142E050E00E940D0F83E0FB
:1004A000882E912C8E0C9F1CCE010396B40144E043
:1004B00050E00E940D0F1F82C8010E94D00E22E35F
:1004C00030E040E050E00E942B0E23E030E040E0BE
:1004D00050E00E947F0E79018A01D801C7018A0D80
:1004E0009B1DAC1DBD1DF301848B958BA68BB78B1B
:1004F000C601B50120EA36E841E050E00E947F0ED7
:10050000CA01B9010E94C50A5B016C01C801B701AB
:100510000E94C50A2CE933E549EC56E30E943A0CE7
:100520009B01AC01C601B5010E945D097B018C01F4
:10053000F301648775878687978720E030E048EC71
:1005400052E40E942A0A0E94920A24E630E0AB019B
:10055000249FB001259F700D349F700D11248827B2
:1005600077FD8095982F0E94C50A9B01AC01C801B8
:10057000B7010E945C0920E030E040E752E40E94AD
:100580002A0A5B016C01F301648F758F868F978F48
:10059000C801B70120E030E048EC52E40E942A0A8A
:1005A0000E94920A882777FD8095982F0E94C50A9D
:1005B0009B01AC01C601B5010E945D09F301648F86
:1005C000758F868F978FC4016CE270E00E94020FD6
:1005D000FC019C012F5F3F4F81818C32C9F0873530
:1005E00051F4F301848D958DA68DB78DB058848F0D
:1005F000958FA68FB78FF9018081873511F08534EB
:1006000019F4F30181A704C08C32A9F5F30111A6F6
:10061000C9016CE270E00E94020F01966CE270E08A
:100620000E94020FFC017C010894E11CF11C8181F5
:100630008C3229F0C7010E94B20EF30186A7C701D0
:100640006CE270E00E94020F01966CE270E00E9482
:10065000020FFC019C012F5F3F4F81818C3241F0E2
:10066000C9010E94AE0EF30160A371A382A393A3FC
:1006700021E030E002C020E030E0C9012A960FB648
:10068000F894DEBF0FBECDBFCF91DF911F910F91C8
:10069000FF90EF90DF90CF90BF90AF909F908F90A2
:1006A0007F906F9008959BB19F709BB99BB1807FA5
:1006B000892B8BB985B1897F85B92A9A2A9A2A987C
:1006C00008951F93182F0E945303812F8295807FD6
:1006D0000E9453031F910895289A0E94610386E6A1
:1006E0009EE00197F1F70895CF93DF93EC0102C0EC
:1006F0000E946C0389918823D9F7DF91CF910895E7
:10070000CF93DF93EC0102C00E946C03FE0121969F
:1007100084918823C9F7DF91CF91089528980E948A
:10072000610386E69EE00197F1F70895DF93CF938A
:10073000CDB7DEB728970FB6F894DEBF0FBECDBF9A
:10074000FE013196A0E0B1E098E00D900192915049
:10075000E1F7853008F083E0E82FF0E0EE0FFF1FAF
:10076000EC0FFD1F8181860F80680E948E03289602
:100770000FB6F894DEBF0FBECDBFCF91DF910895C5
:100780000F931F938AB1806F8AB984B1876084B94F
:10079000289880E09CE60197F1F780E30E945303DC
:1007A00080E094E20197F1F780E30E9453038DED1E
:1007B00090E00197F1F780E30E94530306E61EE004
:1007C000C8010197F1F780E20E945303C801019725
:1007D000F1F788E20E948E038FE00E948E031F9142
:1007E0000F91089586E69EE00197F1F7089581E064
:1007F0000E948E0308951F920F920FB60F9211243C
:100800002F933F938F939F93EF93FF933FB7209145
:10081000C60080911A022432B1F41092CA021092DA
:10082000C90210921B02882319F081E080931B02F9
:1008300010921A028091C9029091CA02FC01E15EF5
:10084000FD4F24E209C0882371F08091C902909184
:10085000CA02FC01E15EFD4F208301969093CA021B
:100860008093C90220C08091CB02873491F480919B
:10087000CC02873471F48091CD02813451F481E04F
:1008800080931A021092CB021092CC021092CD02E9
:10089000DCCF8091CC028093CB028091CD028093FB
:1008A000CC022093CD023FBFFF91EF919F918F919A
:1008B0003F912F910F900FBE0F901F9018951F9290
:1008C0000F920FB60F9211248F934A990AC080910C
:1008D0001D02882321F483E080931D0202C08091D1
:1008E0001D028F910F900FBE0F901F9018952FB77C
:1008F000F8948FE290E09093C5008093C400E1ECFF
:10090000F0E0808180618083808180688083E2EC78
:10091000F0E08081846080832FBF089552985A9AB6
:10092000E8E6F0E0808184608083EDE6F0E080819D
:100930008460808308951092CA021092C90286E9E9
:10094000EFE1F2E0DF011D928A95E9F785E0EBEC3B
:10095000F2E0DF011D928A95E9F70E94C00380E072
:1009600060E00E9496030E9477040E948E047894AF
:100970000E94F70380E067E00E94960388E091E020
:100980000E94740381E069E00E94960380E191E097
:100990000E94740382E063E00E94960383E191E089
:1009A0000E94740380E395E728EB30E0F90131976A
:1009B000F1F70197D9F70E94F70380911D02882370
:1009C00029F590911E028091D101981729F40E9477
:1009D000F70310921E0203C09F5F90931E0280E0F7
:1009E00060E00E94960381E291E00E94740381E03E
:1009F00060E00E9496038DE291E00E94740382E021
:100A000060E00E94960380E491E07BC080911D022B
:100A1000813069F590911E028091D101981729F4D7
:100A20000E94F70310921E0203C09F5F90931E0264
:100A300080E060E00E94960383E591E00E947403E9
:100A400081E060E00E94960382E691E00E947403D8
:100A500082E060E00E94960386E791E00E947403C2
:100A600083E060E00E94960387E891E04AC08091AD
:100A70001D02823029F590911E028091D1019817B4
:100A800029F40E94F70310921E0203C09F5F909307
:100A90001E0280E062E00E9496038FE891E00E94CF
:100AA000740381E061E00E94960380EA91E00E9475
:100AB000740383E067E00E94960382EB91E021C01B
:100AC00080911D02833009F078CF90911E028091B1
:100AD000D101981729F40E94F70310921E0203C057
:100AE0009F5F90931E0280E060E00E94960389EB76
:100AF00091E00E94740381E060E00E94960385EC1F
:100B000091E00E94740359CF6F927F928F929F92CF
:100B1000AF92BF92CF92DF92EF92FF920F931F930B
:100B2000CF93DF93EC014B016C857D858E859F858E
:100B3000F40124853585468557850E945C095B0153
:100B40006C01662420E030E040E050E00E942F0C71
:100B500018163CF566246394688579858A859B859B
:100B6000F40120853185428553850E945C097B0113
:100B70008C0120E030E040E050E00E942F0C18167D
:100B80001CF422ED31E061C0C801B70120E030E083
:100B900040E050E00E94230A88231CF425ED31E058
:100BA00054C07724C601B50120E030E040E050E0B9
:100BB0000E94230A88233CF57724739468857985FD
:100BC0008A859B85F40120853185428553850E9465
:100BD0005C097B018C0120E030E040E050E00E94A5
:100BE0002F0C18161CF428ED31E02FC0C801B701F6
:100BF00020E030E040E050E00E94230A88231CF40B
:100C00002BED31E022C0662019F02EED31E01DC041
:100C1000772019F020EE31E018C0688579858A8543
:100C20009B85F40120853185428553850E945C09AE
:100C300020E030E040E050E00E942F0C18161CF03D
:100C400022EE31E002C024EE31E0C901DF91CF9104
:100C50001F910F91FF90EF90DF90CF90BF90AF90DA
:100C60009F908F907F906F900895FB01E157FF4F09
:100C7000608171810E94840508952FED3EE245E672
:100C800052E40E943A0C089526E33AEF4EE85CE302
:100C90000E943A0C0895AB0141505040DC01FC0128
:100CA000E60FF71F20E030E008C09C9180818D9313
:100CB00090832F5F3F4F41505040319724173507A5
:100CC000A4F30895EF92FF920F931F93CF93DF93B6
:100CD0009C018B017A01C0E0D0E00EC0C9016AE03E
:100CE00070E00E944A0E805D80832196C9016AE00F
:100CF00070E00E944A0E9B01F801EC0FFD1F2115C8
:100D0000310561F780E302C081932196CE15DF059E
:100D1000DCF3C801BE010E944B060C0F1D1FF80139
:100D20001082CE01DF91CF911F910F91FF90EF9034
:100D30000895EF92FF920F931F93DF93CF93CDB758
:100D4000DEB7AC970FB6F894DEBF0FBECDBFAC01D7
:100D5000DE015596E2E0F2E088E101900D928150CB
:100D6000E1F7DE011196EEEEF1E084E101900D92E3
:100D70008150E1F7BA0120E030E085E1E82EF12C66
:100D8000EC0EFD1E8E010F5F1F4FF701E20FF31FE8
:100D900080819181A281B381FB01808F918FA28F8D
:100DA000B38FF801E20FF31F80819181A281B3819B
:100DB000FB01848F958FA68FB78F2C5F3F4F615DAE
:100DC0007F4F2831310509F743575F4FFA011182F0
:100DD00010824D585040FA01E157FF4F5183408334
:100DE0004F565F4F81E090E0FA0191838083AC968B
:100DF0000FB6F894DEBF0FBECDBFCF91DF911F912C
:100E00000F91FF90EF9008954F925F926F927F92B3
:100E10008F929F92AF92BF92CF92DF92EF92FF920A
:100E20000F931F93CF93DF933B014C01EA015901CC
:100E30000E94920ADC01CB012C01BE0140E050E08F
:100E40000E946206A114B104A9F16C01FE01E80F31
:100E5000F91F8EE28083B501882777FD8095982F52
:100E60000E94C50A9B01AC0160E070E080E291E461
:100E70000E949D0C7B018C01B201882777FD809533
:100E8000982F0E94C50A9B01AC01C401B3010E94C6
:100E90005C09A80197010E943A0C0E94920ADC01A9
:100EA000CB010894C11CD11CCC0EDD1EB601A501DE
:100EB0000E946206DF91CF911F910F91FF90EF90FA
:100EC000DF90CF90BF90AF909F908F907F906F906A
:100ED0005F904F9008952F923F924F925F926F9242
:100EE0007F928F929F92AF92BF92CF92DF92EF92BA
:100EF000FF920F931F93DF93CF93CDB7DEB7289761
:100F00000FB6F894DEBF0FBECDBF9E838D8378876A
:100F10006F83FB01E08CF18C028D138DFC01A08CA2
:100F2000B18CC28CD38CC801B701A60195010E9477
:100F30005C0926E33AEF4EE85CE30E943A0C20E0BD
:100F400030E040E05FE30E943A0C0E94E90C3B0174
:100F50004C01C801B70126E33AEF4EE85CE30E947A
:100F60003A0C0E94270A69837A838B839C83C6018B
:100F7000B50126E33AEF4EE85CE30E943A0C0E948A
:100F8000270A1B012C01EF81F885648D758D868DF4
:100F9000978DED81FE81248D358D468D578D0E9474
:100FA0005C0926E33AEF4EE85CE30E943A0C20E04D
:100FB00030E040E05FE30E943A0C0E94E90C7B01C4
:100FC0008C01C401B301A40193010E943A0C5B019E
:100FD0006C0169817A818B819C81A20191010E94BF
:100FE0003A0CA80197010E943A0CA80197010E94AF
:100FF0003A0C9B01AC01C601B5010E945D097B0161
:101000008C010E94F30C5B016C0160E070E080E8F1
:101010009FE3A80197010E945C090E94F30C9B01C9
:10102000AC01C601B5010E94D0099B01AC010E9430
:101030005D0920E038E147EC55E40E943A0C21E7D5
:101040003DE04DE455E40E943A0C28960FB6F89422
:10105000DEBF0FBECDBFCF91DF911F910F91FF90EB
:10106000EF90DF90CF90BF90AF909F908F907F9048
:101070006F905F904F903F902F9008950F931F9324
:10108000CF93DF93EB018B0101571F4FF801608174
:1010900071816115710551F10E946B0720E030E00C
:1010A00040EA50E40E94230A882304F5FE01EF562B
:1010B000FF4F208131812F5F3F4F31832083C35702
:1010C000DF4FF8018081918199838883CD58D0408A
:1010D0008FE290E0AC01249FC001259F900D349FCA
:1010E000900D11248C0F9D1F91838083DF91CF91F0
:1010F0001F910F9108955F926F927F928F929F92AE
:10110000AF92BF92CF92DF92EF92FF920F931F9315
:101110004C016B019FE8A92EB12CA60EB71EF5015C
:1011200060817181C4010E946B079B01AC010E9428
:101130003A0C7B018C01F50160817181C4010E9430
:101140006B079B01AC010E943A0C9B01AC01C801EA
:10115000B7010E945D090E94F30C562E672E782E6F
:10116000B92E8DE890E0C80ED91EF601608171811C
:10117000C4010E946B079B01AC010E943A0C7B01E9
:101180008C01F60160817181C4010E946B079B0193
:10119000AC010E943A0C9B01AC01C801B7010E944E
:1011A0005D090E94F30CE62EC72EA82E892E652D10
:1011B000762D872D9B2D2E2D3C2D4A2D582D0E94AE
:1011C000230A87FD04C05E2C6C2C7A2CB82C252DAC
:1011D000362D472D5B2DB901CA011F910F91FF904C
:1011E000EF90DF90CF90BF90AF909F908F907F90C7
:1011F0006F905F900895FB01E357FF4F608171810D
:101200000E946B070895FB01E157FF4F60817181D8
:101210000E946B070895CF92DF92EF92FF920F9397
:101220001F93DF93CF93CDB7DEB72A970FB6F8940D
:10123000DEBF0FBECDBF7C01FB01E157FF4F008138
:101240001181B8010E9484056C01F70164857585E0
:1012500086859785F80124853585468557850E94C2
:101260005C099B01AC01CA010E94D0092FED3EE24E
:1012700045E652E40E943A0C8E010F5F1F4FA80111
:1012800023E030E00E940407C80166EE71E00E948E
:10129000F70EC801B6010E94F70E2A960FB6F89411
:1012A000DEBF0FBECDBFCF91DF911F910F91FF9099
:1012B000EF90DF90CF9008955058BB27AA270ED00B
:1012C00083C24CD230F051D220F031F49F3F11F460
:1012D0001EF41CC20EF4E095E7FB04C2E92F96D27F
:1012E00080F3BA17620773078407950718F071F443
:1012F0009EF5AEC20EF4E0950B2EBA2FA02D0B0179
:10130000B90190010C01CA01A0011124FF27591B4A
:1013100099F0593F50F4503E68F11A16F040A22F50
:10132000232F342F4427585FF3CF469537952795C1
:10133000A795F0405395C9F77EF41F16BA0B620BC0
:10134000730B840BBAF09150A1F0FF0FBB1F661F07
:10135000771F881FC2F70EC0BA0F621F731F841F4A
:1013600048F4879577956795B795F7959E3F08F070
:10137000B3CF9395880F08F09927EE0F979587952F
:101380000895ECD158F080E891E009F49EEFEDD19A
:1013900028F040E851E059F45EEF09C0B7C158C2E7
:1013A000E92FE07833D268F3092E052AC1F3261716
:1013B00037074807590738F00E2E07F8E02569F07F
:1013C000E025E0640AC0EF6307F8009407FADB0148
:1013D000B9019D01DC01CA01AD01EF934AD0F4D1FE
:1013E0000AD05F91552331F02BED3FE049E450FDE9
:1013F00049EC63CF0895DF93DD27B92FBF7740E82D
:101400005FE31616170648075B0710F4D92F2BD297
:101410009F938F937F936F9324D3E8E6F0E079D185
:10142000D3D12F913F914F915F9130D2DD2349F07D
:101430009058A2EA2AED3FE049EC5FE3D0785D27BF
:101440004DDFDF91C1C12AD108F481E0089595D123
:10145000E395CBC10CD0B8C188D140F07FD130F03A
:1014600021F45F3F19F03EC15111F3C14FC1CED1FC
:1014700098F39923C9F35523B1F3951B550BBB275B
:10148000AA2762177307840738F09F5F5F4F220F08
:10149000331F441FAA1FA9F333D00E2E3AF0E0E801
:1014A00030D091505040E695001CCAF729D0FE2F4D
:1014B00027D0660F771F881FBB1F261737074807DF
:1014C000AB07B0E809F0BB0B802DBF01FF27935895
:1014D0005F4F2AF09E3F510568F004C1BAC15F3FDB
:1014E000ECF3983EDCF3869577956795B795F7957D
:1014F0009F5FC9F7880F911D9695879597F9089575
:10150000E1E0660F771F881FBB1F62177307840710
:10151000BA0720F0621B730B840BBA0BEE1F88F71F
:10152000E095089504D06894B11193C1089576D1DF
:1015300088F09F5790F0B92F9927B751A0F0D1F0BC
:10154000660F771F881F991F1AF0BA95C9F712C046
:10155000B13081F07DD1B1E008957AC1672F782F45
:101560008827B85F39F0B93FCCF3869577956795B2
:10157000B395D9F73EF490958095709561957F4F1E
:101580008F4F9F4F0895E89409C097FB3EF49095C4
:101590008095709561957F4F8F4F9F4F9923A9F04C
:1015A000F92F96E9BB279395F695879577956795DB
:1015B000B795F111F8CFFAF4BB0F11F460FF1BC01F
:1015C0006F5F7F4F8F4F9F4F16C0882311F096E9B2
:1015D00011C0772321F09EE8872F762F05C0662360
:1015E00071F096E8862F70E060E02AF09A95660F19
:1015F000771F881FDAF7880F9695879597F90895D2
:10160000ADD018F011F0B1D038F480C022C1E92F6C
:10161000FDD0B0F35523C9F3E7FB621773078407C6
:101620009507A8F199F3E92FFF2788232AF031972E
:10163000660F771F881FDAF7952F5527442332F05E
:1016400091505040220F331F441FD2F7BB27E91B94
:10165000F50B621B730B840BB109C1F222F4620F0C
:10166000731F841FB11D31972AF0660F771F881FE3
:10167000BB1FEFCF915050405AF041F0882332F019
:10168000660F771F881F91505040C1F7939530C067
:101690008695779567959F5FD9F7F8CF990F0008E2
:1016A000550FAA0BE0E8FEEF16161706E807F90734
:1016B000C0F012161306E407F50798F0621B730BCF
:1016C000840B950B39F40A2661F0232B242B252B50
:1016D00021F408950A2609F4A140A6958FEF811DF3
:1016E000811D089597F99F6780E870E060E0089594
:1016F0009F3F31F0915020F4879577956795B79586
:10170000880F911D9695879597F908959FEF80EC26
:101710000895DF93CF931F930F93FF92EF92DF9281
:101720007B018C01689405C0DA2EEF01AFD0FE0179
:10173000E894A5912591359145915591AEF3EF012E
:10174000CDDDFE019701A801DA9479F7DF90EF90E3
:10175000FF900F911F91CF91DF91089500240A947B
:101760001616170618060906089500240A9412167C
:101770001306140605060895C9CF50D0E8F3E8947F
:10178000E0E0BB279F57F0F02AED3FE049EC06C0B0
:10179000EE0FBB0F661F771F881F28F0B23A620753
:1017A0007307840728F0B25A620B730B840BE3951E
:1017B0009A9572F7803830F49A95BB0F661F771FA1
:1017C000881FD2F7904896CF092E0394000C11F48D
:1017D000882352F0BB0F40F4BF2B11F460FF04C00C
:1017E0006F5F7F4F8F4F9F4F0895EF93E0FF06C0CD
:1017F000A2EA2AED3FE049EC5FEB70DDE5DF0F90F8
:10180000039401FC9058E5E9F0E066C157FD90585B
:10181000440F551F59F05F3F71F04795880F97FBB4
:10182000991F61F09F3F79F087950895121613066E
:101830001406551FF2CF4695F1DF08C0161617069D
:101840001806991FF1CF86957105610508940895D2
:10185000E894BB2766277727CB0197F908951EDF09
:1018600008F48FEF08959B01AC0160E070E080E820
:101870009FE3F0CD0BD0A8CF71DF28F076DF18F012
:10188000952309F02FCF42CF1124E3CFBFDFA0F380
:10189000959FD1F3950F50E0551F629FF001729F05
:1018A000BB27F00DB11D639FAA27F00DB11DAA1F24
:1018B000649F6627B00DA11D661F829F2227B00D71
:1018C000A11D621F739FB00DA11D621F839FA00DFC
:1018D000611D221F749F3327A00D611D231F849F4C
:1018E000600D211D822F762F6A2F11249F575040A3
:1018F0008AF0E1F088234AF0EE0FFF1FBB1F661F3E
:10190000771F881F91505040A9F79E3F510570F0F6
:10191000E9CE9FCF5F3FECF3983EDCF38695779559
:101920006795B795F795E7959F5FC1F7FE2B880FF1
:10193000911D9695879597F90895FA01EE0FFF1F6F
:1019400030962105310599F16115710561F48038F2
:10195000BFE39B0749F168949038810561F08038B6
:10196000BFEF9B0741F0992342F5FF3FE1053105A9
:10197000210511F1E8940894E795D901AA2329F4E7
:10198000AB2FBE2FF85FD0F310C0FF5F70F4A695A9
:10199000E0F7F73950F019F0FF3A38F49F779F934A
:1019A0000CD00F9007FC905808953EF0AFCE60E049
:1019B00070E080E89FE308954FE79F775F934F9330
:1019C0003F932F93D5D02F913F914F915F9152DF4D
:1019D00050C09F93D2DE0F9007FCEE5F06CF11F44C
:1019E0000EF494CE85CE1ADFD0F39923D9F3CEF33B
:1019F0009F57550B87FF69D00024A0E640EA90016D
:101A000080585695979528F4805C660F771F881F3D
:101A100020F026173707480730F4621B730B840B3E
:101A2000202931294A2BA695179407942025312582
:101A30004A2758F7660F771F881F20F026173707A9
:101A4000480730F4620B730B840B200D311D411DD0
:101A5000A09581F7B901842F9158880F96958795A5
:101A600008959B01AC0106CF19F40EF03BCEF0CEE9
:101A70004DCED4DEC8F39638C0F707F80F92E8943D
:101A80002BE33AEA48EB5FE703DF0F920F920F92E6
:101A90004DB75EB70F92ACD0E3EBF0E03ADE4F917A
:101AA0005F91EF91FF91E595EE1FFF1F49F0FE5703
:101AB000E0684427EE0F441FFA95E1F74195550B76
:101AC0001ED00F9007FECFCE089591505040660F64
:101AD000771F881FD2F708959F938F937F936F93FB
:101AE000FF93EF939B01AC01C5DEEF91FF9111DEF7
:101AF0002F913F914F915F91BDCEF4CDF9CD8EDE08
:101B0000E8F39923D9F3940F511DBBF39150504042
:101B100094F059F0882332F0660F771F881F915098
:101B20005040C1F79E3F510544F7880F911D96958F
:101B3000879597F908955F3FACF0983E9CF0BB27DE
:101B4000869577956795B79508F4B1609395C1F739
:101B5000BB0F58F711F460FFE8CF6F5F7F4F8F4FD7
:101B60009F4FE3CF76CE0EF0C3CDD0CD6894BACDE3
:101B700055DEC8F39923D1F3C6F3DF93CF931F93B8
:101B80000F93FF92C92FDD2788232AF02197660F34
:101B9000771F881FDAF720E030E040E85FEB9FE333
:101BA000883920F0803E30F021968F7786DBEBED90
:101BB000F0E003C082DBE8E0F1E0ABDD8B01BE01C9
:101BC000EC01FB2E6F5771097595771F880B990BE8
:101BD000DCDC28E132E741E35FE358DEAF2D98011A
:101BE000AE01FF900F911F91CF91DF9177DBECCD8C
:101BF000FA01DC01AA0FBB1F9B01AC01BF5728F4FF
:101C000022273327442750781FC0B75188F4AB2FC1
:101C10000024469537952795011CA395D2F3002003
:101C200069F0220F331F441FB395DAF30DD044CB74
:101C300061307105A0E88A07B94630F49B01AC0118
:101C40006627772788279078309621F02083318384
:101C5000428353830895629FD001739FF001829F56
:101C6000E00DF11D649FE00DF11D929FF00D839F2B
:101C7000F00D749FF00D659FF00D9927729FB00DC8
:101C8000E11DF91F639FB00DE11DF91FBD01CF01DB
:101C90001124089597FB092E07260AD077FD04D05A
:101CA00049D006D000201AF4709561957F4F0895B1
:101CB000F6F7909581959F4F0895A1E21A2EAA1BE1
:101CC000BB1BFD010DC0AA1FBB1FEE1FFF1FA217EC
:101CD000B307E407F50720F0A21BB30BE40BF50BE9
:101CE000661F771F881F991F1A9469F76095709572
:101CF000809590959B01AC01BD01CF01089597FBA4
:101D0000092E05260ED057FD04D0D7DF0AD0001CBF
:101D100038F450954095309521953F4F4F4F5F4F88
:101D20000895F6F790958095709561957F4F8F4F48
:101D30009F4F0895AA1BBB1B51E107C0AA1FBB1FE1
:101D4000A617B70710F0A61BB70B881F991F5A9547
:101D5000A9F780959095BC01CD0108956627772756
:101D60000C94390FFC0188279927E894219120329F
:101D7000E9F3293010F02E30C8F32B3241F02D3228
:101D800039F4689404C00E94310F820F911D219193
:101D900020532A30C0F31EF4909581959F4F0895EB
:101DA0001F93FC0199278827BC01E89411911032F8
:101DB000E9F3193010F01E30C8F31B3251F01D3218
:101DC00049F4689406C00E941C0F610F711D811DAB
:101DD000911D119110531A30B0F33EF490958095F7
:101DE000709561957F4F8F4F9F4F1F910895FB0115
:101DF000DC010D900020E9F7119701900D92002071
:101E0000E1F70895FC018191861721F08823D9F725
:101E1000992708953197CF010895FB01DC014150C6
:101E2000504048F001900D920020C9F701C01D926A
:101E300041505040E0F70895592F482F372F262F53
:101E4000660F771F881F991F660F771F881F991FBE
:101E5000620F731F841F951F660F771F881F991FBE
:101E600008957AE0979F902D879F802D910D1124E2
:101E70000895A0E0B0E0EFE3FFE00C94C210EC01A5
:101E80005B016115710519F0FB0191838083F99065
:101E90008F2D90E00E949910892BC9F7FDE2FF1663
:101EA00021F4F990EE24E39405C02BE2F21609F434
:101EB000F990EE248E0101501040C80165E371E0F5
:101EC00043E050E00E94A110892B01F58E010E5FC6
:101ED0001F4FC80168E371E045E050E00E94A11087
:101EE000892B19F48E01095F1F4FA114B10419F059
:101EF000F50111830083E0FC04C070E090E080E80D
:101F000014C070E090E080E86FEF08C1C8016DE395
:101F100071E043E050E00E94A110892B69F4A11404
:101F2000B10429F470E090E080EC6FE7F7C02296EE
:101F3000F501D183C083F6CF8824992440E050E096
:101F400060E070E0EF2DE053EA30A0F5F2E0EF2A18
:101F50008E2D90E09C0128703070E2FE06C0232B8D
:101F600079F50894811C911C2BC0232B19F008943F
:101F700081089108DB01CA0112E0880F991FAA1F8E
:101F8000BB1F1A95D1F7480F591F6A1F7B1F440FBB
:101F9000551F661F771F4E0F511D611D711D48395A
:101FA00029E9520729E9620729E1720748F084E02C
:101FB000E82A06C0EE3F31F4E3FC39C098E0E92A94
:101FC000F990C0CFE53311F0E53189F529912D3233
:101FD00019F4E0E1EE2A05C02B3219F081E090E01F
:101FE00003C0299182E090E0E22FE053EA3018F03C
:101FF000C81BD90B1CC020E030E0FCE020383F07B4
:102000005CF4C901880F991F880F991F280F391F89
:10201000220F331F2E0F311DE991E053EA3068F390
:10202000E4FE03C0309521953F4F820E931ECE2CC7
:10203000DD24E1FE07C0A114B10421F02197F501D0
:10204000D183C083CB01BA010E94C30A7B018C01FA
:10205000F3E0CF22DD2423E0C216D10421F417FBE4
:10206000109517F9109557016801C801B70120E0D4
:1020700030E040E050E00E94230A882309F44AC07F
:1020800097FE0DC024E5E22E21E0F22E909481947B
:1020900091089394C0E2D0E000E010E012C09CE60A
:1020A000E92E91E0F92EF6CFF70125913591459172
:1020B0005491C601B5010E943A0C5B016C018C1A67
:1020C0009D0A8C169D0684F7D595C7950F5F1F4F07
:1020D0000630110529F08CEF9FEFE80EF91EF1CFC5
:1020E000C501D6017C018D018C2D880F8D2D881F97
:1020F0008F3F51F0C601B50120E030E040E050E0F4
:102100000E94230A882331F482E290E09093CF0268
:102110008093CE027E2D9F2D802F612F272F392F68
:10212000482F562FB901CA01CDB7DEB7ECE00C94A9
:10213000DE1091111EC0803219F089508550D0F701
:102140000895FB01DC014150504088F08D918134AD
:102150001CF08B350CF4805E659161341CF06B359E
:102160000CF4605E861B611171F3990B0895881B56
:10217000FCCF9927882708952F923F924F925F9224
:102180006F927F928F929F92AF92BF92CF92DF9287
:10219000EF92FF920F931F93CF93DF93CDB7DEB7EC
:1021A000CA1BDB0B0FB6F894DEBF0FBECDBF099480
:1021B0002A88398848885F846E847D848C849B84D7
:1021C000AA84B984C884DF80EE80FD800C811B81E5
:1021D000AA81B981CE0FD11D0FB6F894DEBF0FBE14
:0A21E000CDBFED010895F894FFCF84
:1021EA00000040001400540057656C636F6D650071
:1021FA00746F004A75726173736963205061726B00
:10220A0000312E204E6176696761746500322E2096
:10221A0048656C702C2049276D204C6F737421001F
:10222A00332E2052657475726E20746F2053746158
:10223A00727400312E20542D5265782054726169CF
:10224A006C00322E20507465726F64616374796C0D
:10225A00205061746800332E204F6C6420546F77CD
:10226A006E20526F616400342E204261636B00530A
:10227A00656E64696E67204C6F636174696F6E0086
:10228A00746F2052616E6765722053746174696F4E
:10229A006E0043616E63656C004E4156204469735B
:1022AA00706C617900436F6D696E6720536F6F6E52
:1022BA0000074E45004E57005345005357004E0045
:1022CA0053005700450064656765657320005494A0
:1022DA00ECC23094ECC21494ECC20694ECC2B593EE
:1022EA00ECC2D2140842B0140842E51408420E1592
:0A22FA000842F3140842C51408421C
:00000001FF
